{
  "address": "0x3d0923551eB948Da285a95Dace8DDAdb20570113",
  "abi": [
    {
      "inputs": [
        {
          "internalType": "enum IShields.MintPass",
          "name": "mintPass",
          "type": "uint8"
        }
      ],
      "name": "generateBuildPassSVG",
      "outputs": [
        {
          "internalType": "string",
          "name": "svg",
          "type": "string"
        }
      ],
      "stateMutability": "pure",
      "type": "function"
    }
  ],
  "transactionHash": "0x0778ec0403abf822f0c3ec60e1790df4a847c5a6f4a6d54faf4ccbf7b4eae3d8",
  "args": [],
  "solcInputHash": "5bfe4b77149d6f73b152c3b333b753f0",
  "bytecode": "0x608060405234801561001057600080fd5b50612769806100206000396000f3fe608060405234801561001057600080fd5b506004361061002b5760003560e01c8063e3142b8314610030575b600080fd5b61004a60048036038101906100459190610115565b610060565b6040516100579190610177565b60405180910390f35b60606000600181111561006f57fe5b82600181111561007b57fe5b141561008c576100896100ba565b90505b60018081111561009857fe5b8260018111156100a457fe5b14156100b5576100b26100dd565b90505b919050565b6060604051806113c0016040528061138881526020016113d56113889139905090565b60606040518061120001604052806111cb815260200161020a6111cb9139905090565b60008135905061010f816101f9565b92915050565b60006020828403121561012757600080fd5b600061013584828501610100565b91505092915050565b600061014982610199565b61015381856101a4565b93506101638185602086016101b5565b61016c816101e8565b840191505092915050565b60006020820190508181036000830152610191818461013e565b905092915050565b600081519050919050565b600082825260208201905092915050565b60005b838110156101d35780820151818401526020810190506101b8565b838111156101e2576000848401525b50505050565b6000601f19601f8301169050919050565b6002811061020657600080fd5b5056fe3c73766720786d6c6e733d22687474703a2f2f7777772e77332e6f72672f323030302f7376672220786d6c3a73706163653d227072657365727665222076696577426f783d223020302035303020363030223e3c6c696e6561724772616469656e742069643d2261222078313d223131302e35222078323d223338392e35222079313d2238322e3638222079323d2238322e363822206772616469656e74556e6974733d227573657253706163654f6e557365223e3c73746f70206f66667365743d2230222073746f702d636f6c6f723d2223613961396139222f3e3c73746f70206f66667365743d222e35222073746f702d636f6c6f723d2223666666222f3e3c73746f70206f66667365743d2231222073746f702d636f6c6f723d2223613961396139222f3e3c2f6c696e6561724772616469656e743e3c706174682066696c6c3d2275726c282361292220643d224d3337372e31342037362e35483132322e38366131322e33372031322e33372030203020302d31322e33362031322e33366832373963302d362e38322d352e35342d31322e33362d31322e33362d31322e33367a222f3e3c706174682066696c6c3d22233030374646462220643d224d3132322e3836203532312e356131322e33372031322e33372030203020312d31322e33362d31322e33365639302e383663302d362e383220352e35342d31322e33362031322e33362d31322e3336683235342e323863362e383220302031322e333620352e35342031322e33362031322e3336763431382e3238633020362e38322d352e35342031322e33362d31322e33362031322e3336483132322e38367a222f3e3c706174682066696c6c3d226e6f6e6522207374726f6b653d222346464622207374726f6b652d6c696e656361703d22726f756e6422207374726f6b652d6c696e656a6f696e3d22726f756e6422207374726f6b652d6d697465726c696d69743d22313022207374726f6b652d77696474683d22332220643d224d3335362e3336203135312e33316132362e39382032362e393820302030203020302d32362e38336d2d352e34362032332e363863342e31392d372e323220322e39362d31352e343320302d32302e35336d2d352e34352031372e33386131342e312031342e3120302030203020302d31342e32344d333430203134312e383661382e3120382e3120302030203020302d372e3934222f3e3c706174682066696c6c3d226e6f6e6522207374726f6b653d222346464622207374726f6b652d6d697465726c696d69743d2231302220643d224d323530203139382e3032763331326d2d3131302d333132763331326d3131302030762d3234222f3e3c706174682066696c6c3d226e6f6e6522207374726f6b653d222346464622207374726f6b652d6d697465726c696d69743d22313022207374726f6b652d77696474683d222e39312220643d224d313230203335342e3032683236306d2d32363020313332683236306d2d3236302d32363468323630222f3e3c706174682066696c6c3d226e6f6e6522207374726f6b653d222346464622207374726f6b652d6d697465726c696d69743d2231302220643d224d333630203139382e303276333132222f3e3c706174682066696c6c3d22233030374646462220643d224d333730203439362e3032762d3238344831333076323834683234307a222f3e3c67207374726f6b653d222330303746464622207374726f6b652d6d697465726c696d69743d22313022207374726f6b652d77696474683d2233223e3c706174682066696c6c3d22233341394546462220643d224d333630203232322e3032483134307632363468323230762d323634222f3e3c706174682066696c6c3d226e6f6e652220643d224d313530203232322e3032763236346d31302d323634763236346d31302d323634763236346d31302d323634763236346d31302d323634763236346d31302d323634763236346d31302d323634763236346d31302d323634763236346d31302d323634763236346d31302d323634763236346d31302d323634763236346d31302d323634763236346d31302d323634763236346d31302d323634763236346d31302d323634763236346d31302d323634763236346d31302d323634763236346d31302d323634763236346d31302d323634763236346d31302d323634763236346d31302d323634763236346d2d3231302d3132683232306d2d3232302d3132683232306d2d3232302d3132683232306d2d3232302d3132683232306d2d3232302d3132683232306d2d3232302d3132683232306d2d3232302d3132683232306d2d3232302d3132683232306d2d3232302d3132683232306d2d3232302d3132683232306d2d3232302d3132683232306d2d3232302d3132683232306d2d3232302d3132683232306d2d3232302d3132683232306d2d3232302d3132683232306d2d3232302d3132683232306d2d3232302d3132683232306d2d3232302d3132683232306d2d3232302d3132683232306d2d3232302d3132683232306d2d3232302d313268323230222f3e3c2f673e3c672066696c6c3d226e6f6e6522207374726f6b653d222330303746464622207374726f6b652d6d697465726c696d69743d22313022207374726f6b652d77696474683d2234223e3c636972636c652063783d22323030222063793d223335342220723d2233222f3e3c636972636c652063783d22323235222063793d223332342220723d2233222f3e3c636972636c652063783d22323235222063793d223338342220723d2233222f3e3c636972636c652063783d22323735222063793d223332342220723d2233222f3e3c636972636c652063783d22323735222063793d223338342220723d2233222f3e3c636972636c652063783d22323530222063793d223335342220723d2233222f3e3c636972636c652063783d22333030222063793d223335342220723d2233222f3e3c636972636c652063783d22323530222063793d223431342220723d2233222f3e3c636972636c652063783d22323030222063793d223239342220723d2233222f3e3c636972636c652063783d22323530222063793d223239342220723d2233222f3e3c636972636c652063783d22333030222063793d223239342220723d2233222f3e3c2f673e3c706174682066696c6c3d226e6f6e6522207374726f6b653d222330303746464622207374726f6b652d77696474683d22342220643d224d323530203438362e3032762d3236346d3131302030483134307632363468323230762d3236347a6d302031333248313430222f3e3c672066696c6c3d226e6f6e6522207374726f6b652d6d697465726c696d69743d223130223e3c70617468207374726f6b653d222330303746464622207374726f6b652d77696474683d22342220643d226d313430203438362e3032203232302d3236346d30203236342d3232302d3236346d31313020323634762d3236346d30203139322d35302d36306d35302036302035302d36306d2d35302d36302d35302036306d35302d36302035302036306d302031342e39386135302e30312035302e30312030203020312d35302035302035302e30342035302e30342030203020312d33352e33362d31342e36344135302e30342035302e30342030203020312032303020333639762d3735683130307637357a6d36302d31342e3938483134306d3232302d313332483134307632363468323230762d3236347a222f3e3c70617468207374726f6b653d22234646462220643d226d313430203438362e3032203232302d3236346d30203236342d3232302d3236346d31313020323634762d3236346d30203139322d35302d36306d35302036302035302d36306d2d35302d36302d35302036306d35302d36302035302036306d302031342e39386135302e30312035302e30312030203020312d35302035302035302e30342035302e30342030203020312d33352e33362d31342e36344135302e30342035302e30342030203020312032303020333639762d3735683130307637357a6d36302d31342e3938483134306d3232302d313332483134307632363468323230762d3236347a222f3e3c2f673e3c672066696c6c3d2223464646223e3c636972636c652063783d22323030222063793d223335342220723d2233222f3e3c636972636c652063783d22323235222063793d223332342220723d2233222f3e3c636972636c652063783d22323235222063793d223338342220723d2233222f3e3c636972636c652063783d22323735222063793d223332342220723d2233222f3e3c636972636c652063783d22323735222063793d223338342220723d2233222f3e3c636972636c652063783d22323530222063793d223335342220723d2233222f3e3c636972636c652063783d22333030222063793d223335342220723d2233222f3e3c636972636c652063783d22323530222063793d223431342220723d2233222f3e3c636972636c652063783d22323030222063793d223239342220723d2233222f3e3c636972636c652063783d22323530222063793d223239342220723d2233222f3e3c636972636c652063783d22333030222063793d223239342220723d2233222f3e3c2f673e3c6c696e6561724772616469656e742069643d2262222078313d223135312e3238222078323d223137382e3233222079313d223135382e3435222079323d223130362e3122206772616469656e74556e6974733d227573657253706163654f6e557365223e3c73746f70206f66667365743d2230222073746f702d636f6c6f723d2223666666222f3e3c73746f70206f66667365743d2231222073746f702d636f6c6f723d2223613961396139222f3e3c2f6c696e6561724772616469656e743e3c706174682066696c6c3d2275726c282362292220643d226d31383620313038202e3920322e31362d382e3220392e3834682d322e346c2d382e322d392e38342e392d322e31366831377a6d2e3431203239202e34392d312e31362d382e322d392e3834682d322e346c2d382e3220392e38342e343920312e31366831372e38327a6d2d31392e392d32352e36332d2e35312e32327632322e38326c2e35312e323220382d392e3539563132316c2d382d392e36337a4d313634203133342e3431762d32322e38326c2d2e35312d2e32322d372e393920392e363376346c3820392e35392e352d2e31387a4d3135312e33203132366c2d382e3220392e38342e343920312e31366831372e38326c2e34392d312e31362d382e322d392e3834682d322e347a6d32392e3220323576346c3420342e373368312e30376132342e38312032342e383120302030203020342e34332d31342e3234563134326c2d312e35312d2e36322d372e393920392e36327a6d2d333120302d382d392e35382d312e352e353876332e356132342e38392032342e383920302030203020342e34382031342e323868312e30376c342d342e37342d2e30352d342e30347a6d33312d333076346c3820392e353920312e352d2e3539762d32326c2d312e35312d2e36332d372e393920392e36337a6d322e36342034302e33384c3137382e3720313536682d322e346c2d382e3320313076332e366c312e30362e36316132342e392032342e392030203020302031342e30392d372e34386c2d2e30312d312e33357a4d3137382e37203135306c382e322d392e38342d2e34392d312e3136682d31372e38326c2d2e343920312e313620382e3220392e383468322e347a4d313632203136392e3538563136366c2d382e332d3130682d322e346c2d342e343420352e333476312e33356132352032352030203020302031342e313420372e34396c312d2e367a4d3137342e35203135316c2d382d392e35392d2e35312e3232563136346c2e37332e333620372e37382d392e3336762d347a4d31363420313634762d32322e34316c2d2e35312d2e32322d372e393920392e363376346c372e373720392e33322e37332d2e33327a6d2d32322e34392d32392e333720382d392e3539563132316c2d382d392e35392d312e35312e35397632326c312e35312e36337a4d3135332e37203135306c382e322d392e38342d2e34392d312e3136682d31372e38326c2d2e343920312e313620382e3220392e383468322e347a6d2d392e372d34322d2e3920322e313620382e3220392e383468322e346c382e322d392e38342d2e392d322e3136682d31377a222f3e3c2f7376673e3c73766720786d6c6e733d22687474703a2f2f7777772e77332e6f72672f323030302f7376672220786d6c3a73706163653d227072657365727665222076696577426f783d223020302035303020363030223e3c6c696e6561724772616469656e742069643d2261222078313d223131302e35222078323d223338392e35222079313d2238322e3638222079323d2238322e363822206772616469656e74556e6974733d227573657253706163654f6e557365223e3c73746f70206f66667365743d2230222073746f702d636f6c6f723d2223346234623462222f3e3c73746f70206f66667365743d222e35222073746f702d636f6c6f723d2267726179222f3e3c73746f70206f66667365743d2231222073746f702d636f6c6f723d2223346234623462222f3e3c2f6c696e6561724772616469656e743e3c706174682066696c6c3d2275726c282361292220643d224d3337372e31342037362e35483132322e38366131322e33372031322e33372030203020302d31322e33362031322e33366832373963302d362e38322d352e35342d31322e33362d31322e33362d31322e33367a222f3e3c706174682066696c6c3d22233145314531452220643d224d3132322e3836203532312e356131322e33372031322e33372030203020312d31322e33362d31322e33365639302e383663302d362e383220352e35342d31322e33362031322e33362d31322e3336683235342e323863362e383220302031322e333620352e35342031322e33362031322e3336763431382e3238633020362e38322d352e35342031322e33362d31322e33362031322e3336483132322e38367a222f3e3c706174682066696c6c3d226e6f6e6522207374726f6b653d226772617922207374726f6b652d6c696e656361703d22726f756e6422207374726f6b652d6c696e656a6f696e3d22726f756e6422207374726f6b652d6d697465726c696d69743d22313022207374726f6b652d77696474683d22332220643d224d3335362e3336203135312e33316132362e39382032362e393820302030203020302d32362e38336d2d352e34362032332e363863342e31392d372e323220322e39362d31352e343320302d32302e35336d2d352e34352031372e33386131342e312031342e3120302030203020302d31342e32344d333430203134312e383661382e3120382e3120302030203020302d372e3934222f3e3c706174682066696c6c3d226e6f6e6522207374726f6b653d226772617922207374726f6b652d6d697465726c696d69743d2231302220643d224d323530203139382e3032763331326d2d3131302d333132763331326d3131302030762d3234222f3e3c706174682066696c6c3d226e6f6e6522207374726f6b653d226772617922207374726f6b652d6d697465726c696d69743d22313022207374726f6b652d77696474683d222e39312220643d224d313230203335342e3032683236306d2d32363020313332683236306d2d3236302d32363468323630222f3e3c706174682066696c6c3d226e6f6e6522207374726f6b653d226772617922207374726f6b652d6d697465726c696d69743d2231302220643d224d333630203139382e303276333132222f3e3c706174682066696c6c3d22233145314531452220643d224d333730203439362e3032762d3238344831333076323834683234307a222f3e3c67207374726f6b653d222331453145314522207374726f6b652d6d697465726c696d69743d22313022207374726f6b652d77696474683d2233223e3c706174682066696c6c3d22233442344234422220643d224d333630203232322e3032483134307632363468323230762d323634222f3e3c706174682066696c6c3d226e6f6e652220643d224d313530203232322e3032763236346d31302d323634763236346d31302d323634763236346d31302d323634763236346d31302d323634763236346d31302d323634763236346d31302d323634763236346d31302d323634763236346d31302d323634763236346d31302d323634763236346d31302d323634763236346d31302d323634763236346d31302d323634763236346d31302d323634763236346d31302d323634763236346d31302d323634763236346d31302d323634763236346d31302d323634763236346d31302d323634763236346d31302d323634763236346d31302d323634763236346d2d3231302d3132683232306d2d3232302d3132683232306d2d3232302d3132683232306d2d3232302d3132683232306d2d3232302d3132683232306d2d3232302d3132683232306d2d3232302d3132683232306d2d3232302d3132683232306d2d3232302d3132683232306d2d3232302d3132683232306d2d3232302d3132683232306d2d3232302d3132683232306d2d3232302d3132683232306d2d3232302d3132683232306d2d3232302d3132683232306d2d3232302d3132683232306d2d3232302d3132683232306d2d3232302d3132683232306d2d3232302d3132683232306d2d3232302d3132683232306d2d3232302d313268323230222f3e3c2f673e3c672066696c6c3d226e6f6e6522207374726f6b653d222331453145314522207374726f6b652d6d697465726c696d69743d22313022207374726f6b652d77696474683d2234223e3c636972636c652063783d22323030222063793d223335342220723d2233222f3e3c636972636c652063783d22323235222063793d223332342220723d2233222f3e3c636972636c652063783d22323235222063793d223338342220723d2233222f3e3c636972636c652063783d22323735222063793d223332342220723d2233222f3e3c636972636c652063783d22323735222063793d223338342220723d2233222f3e3c636972636c652063783d22323530222063793d223335342220723d2233222f3e3c636972636c652063783d22333030222063793d223335342220723d2233222f3e3c636972636c652063783d22323530222063793d223431342220723d2233222f3e3c636972636c652063783d22323030222063793d223239342220723d2233222f3e3c636972636c652063783d22323530222063793d223239342220723d2233222f3e3c636972636c652063783d22333030222063793d223239342220723d2233222f3e3c2f673e3c706174682066696c6c3d226e6f6e6522207374726f6b653d222331453145314522207374726f6b652d6d697465726c696d69743d22313022207374726f6b652d77696474683d22342220643d224d3234342e3432203331382e317632312e37326131342e34382031342e34382030203120312d32382e39362030563331382e316832382e39367a6d34302e313220307632312e37326131342e34382031342e34382030203120312d32382e39362030563331382e316832382e39367a6d2d32302e30362034352e347632312e37326131342e34382031342e34382030203120312d32382e39362030563336332e356832382e39367a222f3e3c706174682066696c6c3d226e6f6e6522207374726f6b653d222331453145314522207374726f6b652d77696474683d22342220643d224d323530203438362e3032762d3236346d3131302030483134307632363468323230762d3236347a6d302031333248313430222f3e3c672066696c6c3d226e6f6e6522207374726f6b652d6d697465726c696d69743d223130223e3c70617468207374726f6b653d222331453145314522207374726f6b652d77696474683d22342220643d226d313430203438362e3032203232302d3236346d30203236342d3232302d3236346d31313020323634762d3236346d30203139322d35302d36306d35302036302035302d36306d2d35302d36302d35302036306d35302d36302035302036306d302031342e39386135302e30312035302e30312030203020312d35302035302035302e30342035302e30342030203020312d33352e33362d31342e36344135302e30342035302e30342030203020312032303020333639762d3735683130307637357a6d36302d31342e3938483134306d3232302d313332483134307632363468323230762d3236347a222f3e3c70617468207374726f6b653d22677261792220643d226d313430203438362e3032203232302d3236346d30203236342d3232302d3236346d31313020323634762d3236346d30203139322d35302d36306d35302036302035302d36306d2d35302d36302d35302036306d35302d36302035302036306d302031342e39386135302e30312035302e30312030203020312d35302035302035302e30342035302e30342030203020312d33352e33362d31342e36344135302e30342035302e30342030203020312032303020333639762d3735683130307637357a6d36302d31342e3938483134306d3232302d313332483134307632363468323230762d3236347a222f3e3c2f673e3c672066696c6c3d2267726179223e3c636972636c652063783d22323030222063793d223335342220723d2233222f3e3c636972636c652063783d22323235222063793d223332342220723d2233222f3e3c636972636c652063783d22323235222063793d223338342220723d2233222f3e3c636972636c652063783d22323735222063793d223332342220723d2233222f3e3c636972636c652063783d22323735222063793d223338342220723d2233222f3e3c636972636c652063783d22323530222063793d223335342220723d2233222f3e3c636972636c652063783d22333030222063793d223335342220723d2233222f3e3c636972636c652063783d22323530222063793d223431342220723d2233222f3e3c636972636c652063783d22323030222063793d223239342220723d2233222f3e3c636972636c652063783d22323530222063793d223239342220723d2233222f3e3c636972636c652063783d22333030222063793d223239342220723d2233222f3e3c2f673e3c6c696e6561724772616469656e742069643d2262222078313d223134362e3833222078323d223135392e3539222079313d223137342e3736222079323d223134342e323222206772616469656e74556e6974733d227573657253706163654f6e557365223e3c73746f70206f66667365743d2230222073746f702d636f6c6f723d2223363662326666222f3e3c73746f70206f66667365743d2231222073746f702d636f6c6f723d2223303037666666222f3e3c2f6c696e6561724772616469656e743e3c706174682066696c6c3d2275726c282362292220643d226d31383620313038202e3920322e31362d382e3220392e3834682d322e346c2d382e322d392e38342e392d322e31366831377a6d2e3431203239202e34392d312e31362d382e322d392e3834682d322e346c2d382e3220392e38342e343920312e31366831372e38327a6d2d31392e392d32352e36332d2e35312e32327632322e38326c2e35312e323220382d392e3539563132316c2d382d392e36337a4d313634203133342e3431762d32322e38326c2d2e35312d2e32322d372e393920392e363376346c3820392e35392e352d2e31387a4d3135312e33203132366c2d382e3220392e38342e343920312e31366831372e38326c2e34392d312e31362d382e322d392e3834682d322e347a6d32392e3220323576346c3420342e373368312e30376132342e38312032342e383120302030203020342e34332d31342e3234563134326c2d312e35312d2e36322d372e393920392e36327a6d2d333120302d382d392e35382d312e352e353876332e356132342e38392032342e383920302030203020342e34382031342e323868312e30376c342d342e37342d2e30352d342e30347a6d33312d333076346c3820392e353920312e352d2e3539762d32326c2d312e35312d2e36332d372e393920392e36337a6d322e36342034302e33384c3137382e3720313536682d322e346c2d382e3320313076332e366c312e30362e36316132342e392032342e392030203020302031342e30392d372e34386c2d2e30312d312e33357a4d3137382e37203135306c382e322d392e38342d2e34392d312e3136682d31372e38326c2d2e343920312e313620382e3220392e383468322e347a4d313632203136392e3538563136366c2d382e332d3130682d322e346c2d342e343420352e333476312e33356132352032352030203020302031342e313420372e34396c312d2e367a4d3137342e35203135316c2d382d392e35392d2e35312e3232563136346c2e37332e333620372e37382d392e3336762d347a4d31363420313634762d32322e34316c2d2e35312d2e32322d372e393920392e363376346c372e373720392e33322e37332d2e33327a6d2d32322e34392d32392e333720382d392e3539563132316c2d382d392e35392d312e35312e35397632326c312e35312e36337a4d3135332e37203135306c382e322d392e38342d2e34392d312e3136682d31372e38326c2d2e343920312e313620382e3220392e383468322e347a6d2d392e372d34322d2e3920322e313620382e3220392e383468322e346c382e322d392e38342d2e392d322e3136682d31377a222f3e3c706174682066696c6c3d22677261792220643d224d3234342e3432203331382e317632312e37326131342e34382031342e34382030203120312d32382e39362030563331382e316832382e39367a6d34302e313220307632312e37326131342e34382031342e34382030203120312d32382e39362030563331382e316832382e39367a6d2d32302e30362034352e347632312e37326131342e34382031342e34382030203120312d32382e39362030563336332e356832382e39367a222f3e3c2f7376673ea164736f6c6343000706000a",
  "devdoc": {
    "details": "Generate Field SVG",
    "kind": "dev",
    "methods": {},
    "version": 1
  },
  "userdoc": {
    "kind": "user",
    "methods": {},
    "version": 1
  },
  "storageLayout": {
    "storage": [],
    "types": null
  }
}