{
  "address": "0x2d6abEF106B11fEA365BDc8eaa65ecBf46E2a15e",
  "abi": [
    {
      "inputs": [
        {
          "components": [
            {
              "internalType": "contract IFrameSVGs",
              "name": "frameSVGs1",
              "type": "address"
            },
            {
              "internalType": "contract IFrameSVGs",
              "name": "frameSVGs2",
              "type": "address"
            }
          ],
          "internalType": "struct IFrameGenerator.FrameSVGs",
          "name": "svgs",
          "type": "tuple"
        }
      ],
      "stateMutability": "nonpayable",
      "type": "constructor"
    },
    {
      "inputs": [
        {
          "internalType": "uint16",
          "name": "frame",
          "type": "uint16"
        }
      ],
      "name": "generateFrame",
      "outputs": [
        {
          "components": [
            {
              "internalType": "string",
              "name": "title",
              "type": "string"
            },
            {
              "internalType": "uint256",
              "name": "fee",
              "type": "uint256"
            },
            {
              "internalType": "string",
              "name": "svgString",
              "type": "string"
            }
          ],
          "internalType": "struct IFrameSVGs.FrameData",
          "name": "",
          "type": "tuple"
        }
      ],
      "stateMutability": "view",
      "type": "function"
    }
  ],
  "transactionHash": "0x05c2a01d035230bd4de789e5597665d89b3fb44e1282b626857a4e5614dc0556",
  "args": [
    {
      "frameSVGs1": "0x15c3ee6ef9a83ce4fbb0721d6cf3b2692d7a6090",
      "frameSVGs2": "0xe7bec27f2b6ac5a17e8e8dc86ca54844b6422dfa"
    }
  ],
  "solcInputHash": "06c6c0124c47c1cdc59e63dde81c06b1",
  "bytecode": "0x60c060405234801561001057600080fd5b5060405161092538038061092583398101604081905261002f9161006a565b80516001600160a01b039081166080526020909101511660a0526100d2565b80516001600160a01b038116811461006557600080fd5b919050565b60006040828403121561007c57600080fd5b604080519081016001600160401b03811182821017156100ac57634e487b7160e01b600052604160045260246000fd5b6040526100b88361004e565b81526100c66020840161004e565b60208201529392505050565b60805160a0516108306100f5600039600060ca01526000608e01526108306000f3fe608060405234801561001057600080fd5b506004361061002b5760003560e01c8063d0b7314f14610030575b600080fd5b61004361003e3660046103f3565b610059565b6040516100509190610498565b60405180910390f35b61007d60405180606001604052806060815260200160008152602001606081525090565b60038261ffff16116100b9576100b37f000000000000000000000000000000000000000000000000000000000000000083610155565b92915050565b60058261ffff16116100ef576100b37f000000000000000000000000000000000000000000000000000000000000000083610155565b6040517f08c379a000000000000000000000000000000000000000000000000000000000815260206004820152601760248201527f696e76616c6964206672616d652073656c656374696f6e000000000000000000604482015260640160405180910390fd5b61017960405180606001604052806060815260200160008152602001606081525090565b60006101888361ffff166102b9565b6040516020016101989190610502565b604080517fffffffffffffffffffffffffffffffffffffffffffffffffffffffffffffffe081840301815282825280516020808301919091206004855260248501845290840180517bffffffffffffffffffffffffffffffffffffffffffffffffffffffff167fffffffff00000000000000000000000000000000000000000000000000000000909216919091179052905190925060009160609173ffffffffffffffffffffffffffffffffffffffff8816916102549161056e565b600060405180830381855afa9150503d806000811461028f576040519150601f19603f3d011682016040523d82523d6000602084013e610294565b606091505b50805191935091506102af9082016020908101908301610655565b9695505050505050565b6060816102f957505060408051808201909152600181527f3000000000000000000000000000000000000000000000000000000000000000602082015290565b8160005b8115610323578061030d81610735565b915061031c9050600a8361079d565b91506102fd565b60008167ffffffffffffffff81111561033e5761033e61058a565b6040519080825280601f01601f191660200182016040528015610368576020820181803683370190505b5090505b84156103eb5761037d6001836107b1565b915061038a600a866107c8565b6103959060306107dc565b60f81b8183815181106103aa576103aa6107f4565b60200101907effffffffffffffffffffffffffffffffffffffffffffffffffffffffffffff1916908160001a9053506103e4600a8661079d565b945061036c565b949350505050565b60006020828403121561040557600080fd5b813561ffff8116811461041757600080fd5b9392505050565b60005b83811015610439578181015183820152602001610421565b83811115610448576000848401525b50505050565b6000815180845261046681602086016020860161041e565b601f017fffffffffffffffffffffffffffffffffffffffffffffffffffffffffffffffe0169290920160200192915050565b6020815260008251606060208401526104b4608084018261044e565b90506020840151604084015260408401517fffffffffffffffffffffffffffffffffffffffffffffffffffffffffffffffe08483030160608501526104f9828261044e565b95945050505050565b7f6672616d655f000000000000000000000000000000000000000000000000000081526000825161053a81600685016020870161041e565b7f28290000000000000000000000000000000000000000000000000000000000006006939091019283015250600801919050565b6000825161058081846020870161041e565b9190910192915050565b7f4e487b7100000000000000000000000000000000000000000000000000000000600052604160045260246000fd5b600082601f8301126105ca57600080fd5b815167ffffffffffffffff808211156105e5576105e561058a565b604051601f83017fffffffffffffffffffffffffffffffffffffffffffffffffffffffffffffffe0908116603f0116810190828211818310171561062b5761062b61058a565b8160405283815286602085880101111561064457600080fd5b6102af84602083016020890161041e565b60006020828403121561066757600080fd5b815167ffffffffffffffff8082111561067f57600080fd5b908301906060828603121561069357600080fd5b6040516060810181811083821117156106ae576106ae61058a565b6040528251828111156106c057600080fd5b6106cc878286016105b9565b825250602083015160208201526040830151828111156106eb57600080fd5b6106f7878286016105b9565b60408301525095945050505050565b7f4e487b7100000000000000000000000000000000000000000000000000000000600052601160045260246000fd5b60007fffffffffffffffffffffffffffffffffffffffffffffffffffffffffffffffff82141561076757610767610706565b5060010190565b7f4e487b7100000000000000000000000000000000000000000000000000000000600052601260045260246000fd5b6000826107ac576107ac61076e565b500490565b6000828210156107c3576107c3610706565b500390565b6000826107d7576107d761076e565b500690565b600082198211156107ef576107ef610706565b500190565b7f4e487b7100000000000000000000000000000000000000000000000000000000600052603260045260246000fdfea164736f6c6343000809000a"
}