{
  "address": "0x453F896e987F272432128a8ca8d047d94C60B184",
  "abi": [
    {
      "inputs": [
        {
          "internalType": "string",
          "name": "name_",
          "type": "string"
        },
        {
          "internalType": "string",
          "name": "symbol_",
          "type": "string"
        },
        {
          "internalType": "contract IShieldDescriptor",
          "name": "_shieldDescriptor",
          "type": "address"
        },
        {
          "internalType": "address",
          "name": "makerBadgeRecipient",
          "type": "address"
        },
        {
          "internalType": "address",
          "name": "granteeBadgeRecipient",
          "type": "address"
        }
      ],
      "stateMutability": "nonpayable",
      "type": "constructor"
    },
    {
      "anonymous": false,
      "inputs": [
        {
          "indexed": true,
          "internalType": "address",
          "name": "owner",
          "type": "address"
        },
        {
          "indexed": true,
          "internalType": "address",
          "name": "approved",
          "type": "address"
        },
        {
          "indexed": true,
          "internalType": "uint256",
          "name": "tokenId",
          "type": "uint256"
        }
      ],
      "name": "Approval",
      "type": "event"
    },
    {
      "anonymous": false,
      "inputs": [
        {
          "indexed": true,
          "internalType": "address",
          "name": "owner",
          "type": "address"
        },
        {
          "indexed": true,
          "internalType": "address",
          "name": "operator",
          "type": "address"
        },
        {
          "indexed": false,
          "internalType": "bool",
          "name": "approved",
          "type": "bool"
        }
      ],
      "name": "ApprovalForAll",
      "type": "event"
    },
    {
      "anonymous": false,
      "inputs": [
        {
          "indexed": true,
          "internalType": "address",
          "name": "previousOwner",
          "type": "address"
        },
        {
          "indexed": true,
          "internalType": "address",
          "name": "newOwner",
          "type": "address"
        }
      ],
      "name": "OwnershipTransferred",
      "type": "event"
    },
    {
      "anonymous": false,
      "inputs": [
        {
          "indexed": false,
          "internalType": "uint256",
          "name": "tokenId",
          "type": "uint256"
        },
        {
          "indexed": false,
          "internalType": "uint16",
          "name": "field",
          "type": "uint16"
        },
        {
          "indexed": false,
          "internalType": "uint16",
          "name": "hardware",
          "type": "uint16"
        },
        {
          "indexed": false,
          "internalType": "uint16",
          "name": "frame",
          "type": "uint16"
        },
        {
          "indexed": false,
          "internalType": "uint24[4]",
          "name": "colors",
          "type": "uint24[4]"
        },
        {
          "indexed": false,
          "internalType": "enum IShields.ShieldBadge",
          "name": "shieldBadge",
          "type": "uint8"
        }
      ],
      "name": "ShieldBuilt",
      "type": "event"
    },
    {
      "anonymous": false,
      "inputs": [
        {
          "indexed": true,
          "internalType": "address",
          "name": "from",
          "type": "address"
        },
        {
          "indexed": true,
          "internalType": "address",
          "name": "to",
          "type": "address"
        },
        {
          "indexed": true,
          "internalType": "uint256",
          "name": "tokenId",
          "type": "uint256"
        }
      ],
      "name": "Transfer",
      "type": "event"
    },
    {
      "inputs": [
        {
          "internalType": "address",
          "name": "to",
          "type": "address"
        },
        {
          "internalType": "uint256",
          "name": "tokenId",
          "type": "uint256"
        }
      ],
      "name": "approve",
      "outputs": [],
      "stateMutability": "nonpayable",
      "type": "function"
    },
    {
      "inputs": [
        {
          "internalType": "address",
          "name": "owner",
          "type": "address"
        }
      ],
      "name": "balanceOf",
      "outputs": [
        {
          "internalType": "uint256",
          "name": "",
          "type": "uint256"
        }
      ],
      "stateMutability": "view",
      "type": "function"
    },
    {
      "inputs": [
        {
          "internalType": "uint16",
          "name": "field",
          "type": "uint16"
        },
        {
          "internalType": "uint16",
          "name": "hardware",
          "type": "uint16"
        },
        {
          "internalType": "uint16",
          "name": "frame",
          "type": "uint16"
        },
        {
          "internalType": "uint24[4]",
          "name": "colors",
          "type": "uint24[4]"
        },
        {
          "internalType": "uint256",
          "name": "tokenId",
          "type": "uint256"
        }
      ],
      "name": "build",
      "outputs": [],
      "stateMutability": "payable",
      "type": "function"
    },
    {
      "inputs": [],
      "name": "collectFees",
      "outputs": [],
      "stateMutability": "nonpayable",
      "type": "function"
    },
    {
      "inputs": [
        {
          "internalType": "uint256",
          "name": "tokenId",
          "type": "uint256"
        }
      ],
      "name": "getApproved",
      "outputs": [
        {
          "internalType": "address",
          "name": "",
          "type": "address"
        }
      ],
      "stateMutability": "view",
      "type": "function"
    },
    {
      "inputs": [
        {
          "internalType": "address",
          "name": "owner",
          "type": "address"
        },
        {
          "internalType": "address",
          "name": "operator",
          "type": "address"
        }
      ],
      "name": "isApprovedForAll",
      "outputs": [
        {
          "internalType": "bool",
          "name": "",
          "type": "bool"
        }
      ],
      "stateMutability": "view",
      "type": "function"
    },
    {
      "inputs": [
        {
          "internalType": "address",
          "name": "to",
          "type": "address"
        },
        {
          "internalType": "uint8",
          "name": "count",
          "type": "uint8"
        }
      ],
      "name": "mint",
      "outputs": [],
      "stateMutability": "payable",
      "type": "function"
    },
    {
      "inputs": [],
      "name": "mythicFee",
      "outputs": [
        {
          "internalType": "uint256",
          "name": "",
          "type": "uint256"
        }
      ],
      "stateMutability": "view",
      "type": "function"
    },
    {
      "inputs": [],
      "name": "name",
      "outputs": [
        {
          "internalType": "string",
          "name": "",
          "type": "string"
        }
      ],
      "stateMutability": "view",
      "type": "function"
    },
    {
      "inputs": [],
      "name": "owner",
      "outputs": [
        {
          "internalType": "address",
          "name": "",
          "type": "address"
        }
      ],
      "stateMutability": "view",
      "type": "function"
    },
    {
      "inputs": [
        {
          "internalType": "uint256",
          "name": "tokenId",
          "type": "uint256"
        }
      ],
      "name": "ownerOf",
      "outputs": [
        {
          "internalType": "address",
          "name": "",
          "type": "address"
        }
      ],
      "stateMutability": "view",
      "type": "function"
    },
    {
      "inputs": [],
      "name": "publicMintActive",
      "outputs": [
        {
          "internalType": "bool",
          "name": "",
          "type": "bool"
        }
      ],
      "stateMutability": "view",
      "type": "function"
    },
    {
      "inputs": [],
      "name": "publicMintPrice",
      "outputs": [
        {
          "internalType": "uint256",
          "name": "",
          "type": "uint256"
        }
      ],
      "stateMutability": "view",
      "type": "function"
    },
    {
      "inputs": [],
      "name": "renounceOwnership",
      "outputs": [],
      "stateMutability": "nonpayable",
      "type": "function"
    },
    {
      "inputs": [
        {
          "internalType": "address",
          "name": "from",
          "type": "address"
        },
        {
          "internalType": "address",
          "name": "to",
          "type": "address"
        },
        {
          "internalType": "uint256",
          "name": "tokenId",
          "type": "uint256"
        }
      ],
      "name": "safeTransferFrom",
      "outputs": [],
      "stateMutability": "nonpayable",
      "type": "function"
    },
    {
      "inputs": [
        {
          "internalType": "address",
          "name": "from",
          "type": "address"
        },
        {
          "internalType": "address",
          "name": "to",
          "type": "address"
        },
        {
          "internalType": "uint256",
          "name": "tokenId",
          "type": "uint256"
        },
        {
          "internalType": "bytes",
          "name": "_data",
          "type": "bytes"
        }
      ],
      "name": "safeTransferFrom",
      "outputs": [],
      "stateMutability": "nonpayable",
      "type": "function"
    },
    {
      "inputs": [
        {
          "internalType": "address",
          "name": "operator",
          "type": "address"
        },
        {
          "internalType": "bool",
          "name": "approved",
          "type": "bool"
        }
      ],
      "name": "setApprovalForAll",
      "outputs": [],
      "stateMutability": "nonpayable",
      "type": "function"
    },
    {
      "inputs": [],
      "name": "setPublicMintActive",
      "outputs": [],
      "stateMutability": "nonpayable",
      "type": "function"
    },
    {
      "inputs": [
        {
          "internalType": "uint256",
          "name": "_publicMintPrice",
          "type": "uint256"
        }
      ],
      "name": "setPublicMintPrice",
      "outputs": [],
      "stateMutability": "nonpayable",
      "type": "function"
    },
    {
      "inputs": [],
      "name": "shieldDescriptor",
      "outputs": [
        {
          "internalType": "contract IShieldDescriptor",
          "name": "",
          "type": "address"
        }
      ],
      "stateMutability": "view",
      "type": "function"
    },
    {
      "inputs": [
        {
          "internalType": "bytes32",
          "name": "",
          "type": "bytes32"
        }
      ],
      "name": "shieldHashes",
      "outputs": [
        {
          "internalType": "bool",
          "name": "",
          "type": "bool"
        }
      ],
      "stateMutability": "view",
      "type": "function"
    },
    {
      "inputs": [
        {
          "internalType": "uint256",
          "name": "tokenId",
          "type": "uint256"
        }
      ],
      "name": "shields",
      "outputs": [
        {
          "internalType": "uint16",
          "name": "field",
          "type": "uint16"
        },
        {
          "internalType": "uint16",
          "name": "hardware",
          "type": "uint16"
        },
        {
          "internalType": "uint16",
          "name": "frame",
          "type": "uint16"
        },
        {
          "internalType": "uint24",
          "name": "color1",
          "type": "uint24"
        },
        {
          "internalType": "uint24",
          "name": "color2",
          "type": "uint24"
        },
        {
          "internalType": "uint24",
          "name": "color3",
          "type": "uint24"
        },
        {
          "internalType": "uint24",
          "name": "color4",
          "type": "uint24"
        },
        {
          "internalType": "enum IShields.ShieldBadge",
          "name": "shieldBadge",
          "type": "uint8"
        }
      ],
      "stateMutability": "view",
      "type": "function"
    },
    {
      "inputs": [],
      "name": "specialFee",
      "outputs": [
        {
          "internalType": "uint256",
          "name": "",
          "type": "uint256"
        }
      ],
      "stateMutability": "view",
      "type": "function"
    },
    {
      "inputs": [
        {
          "internalType": "bytes4",
          "name": "interfaceId",
          "type": "bytes4"
        }
      ],
      "name": "supportsInterface",
      "outputs": [
        {
          "internalType": "bool",
          "name": "",
          "type": "bool"
        }
      ],
      "stateMutability": "view",
      "type": "function"
    },
    {
      "inputs": [],
      "name": "symbol",
      "outputs": [
        {
          "internalType": "string",
          "name": "",
          "type": "string"
        }
      ],
      "stateMutability": "view",
      "type": "function"
    },
    {
      "inputs": [
        {
          "internalType": "uint256",
          "name": "tokenId",
          "type": "uint256"
        }
      ],
      "name": "tokenURI",
      "outputs": [
        {
          "internalType": "string",
          "name": "",
          "type": "string"
        }
      ],
      "stateMutability": "view",
      "type": "function"
    },
    {
      "inputs": [],
      "name": "totalSupply",
      "outputs": [
        {
          "internalType": "uint256",
          "name": "",
          "type": "uint256"
        }
      ],
      "stateMutability": "view",
      "type": "function"
    },
    {
      "inputs": [
        {
          "internalType": "address",
          "name": "from",
          "type": "address"
        },
        {
          "internalType": "address",
          "name": "to",
          "type": "address"
        },
        {
          "internalType": "uint256",
          "name": "tokenId",
          "type": "uint256"
        }
      ],
      "name": "transferFrom",
      "outputs": [],
      "stateMutability": "nonpayable",
      "type": "function"
    },
    {
      "inputs": [
        {
          "internalType": "address",
          "name": "newOwner",
          "type": "address"
        }
      ],
      "name": "transferOwnership",
      "outputs": [],
      "stateMutability": "nonpayable",
      "type": "function"
    }
  ],
  "transactionHash": "0xe0cfd5533bd9063e29a3b05bc2b8e61b273a02b9799610e9024803803e75738c",
  "args": [
    "Shields",
    "SHIELDS",
    "0x0b1D4e4B39836dED6D25b3911162fc3fFc92CA56",
    "0x42aaEEe1201EC5D1f3a3DCcc23AB8c01391d182d",
    "0x42aaEEe1201EC5D1f3a3DCcc23AB8c01391d182d"
  ],
  "solcInputHash": "fe897b961f7bc28b8df8819c7790723a",
  "bytecode": "0x60a06040526006805460ff60a01b191690553480156200001e57600080fd5b50604051620044ae380380620044ae833981016040819052620000419162000453565b8451859085906200005a906000906020850190620002c7565b50805162000070906001906020840190620002c7565b5050506200008d620000876200012560201b60201c565b62000129565b6001600160a01b03831660805260015b60648111620000c757620000b283826200017b565b80620000be8162000515565b9150506200009d565b506000620000d86064600162000533565b90505b6101f481116200010657620000f182826200017b565b80620000fd8162000515565b915050620000db565b50620001166101f4600162000533565b600855506200058b9350505050565b3390565b600680546001600160a01b038381166001600160a01b0319831681179093556040519116919082907f8be0079c531659141344cd1fd0a4f28419497f9722a3daafe3b4186f6b6457e090600090a35050565b6001600160a01b038216620001d75760405162461bcd60e51b815260206004820181905260248201527f4552433732313a206d696e7420746f20746865207a65726f206164647265737360448201526064015b60405180910390fd5b6000818152600260205260409020546001600160a01b0316156200023e5760405162461bcd60e51b815260206004820152601c60248201527f4552433732313a20746f6b656e20616c7265616479206d696e746564000000006044820152606401620001ce565b6001600160a01b03821660009081526003602052604081208054600192906200026990849062000533565b909155505060008181526002602052604080822080546001600160a01b0319166001600160a01b03861690811790915590518392907fddf252ad1be2c89b69c2b068fc378daa952ba7f163c4a11628f55a4df523b3ef908290a45050565b828054620002d5906200054e565b90600052602060002090601f016020900481019282620002f9576000855562000344565b82601f106200031457805160ff191683800117855562000344565b8280016001018555821562000344579182015b828111156200034457825182559160200191906001019062000327565b506200035292915062000356565b5090565b5b8082111562000352576000815560010162000357565b634e487b7160e01b600052604160045260246000fd5b600082601f8301126200039557600080fd5b81516001600160401b0380821115620003b257620003b26200036d565b604051601f8301601f19908116603f01168101908282118183101715620003dd57620003dd6200036d565b81604052838152602092508683858801011115620003fa57600080fd5b600091505b838210156200041e5785820183015181830184015290820190620003ff565b83821115620004305760008385830101525b9695505050505050565b6001600160a01b03811681146200045057600080fd5b50565b600080600080600060a086880312156200046c57600080fd5b85516001600160401b03808211156200048457600080fd5b6200049289838a0162000383565b96506020880151915080821115620004a957600080fd5b50620004b88882890162000383565b9450506040860151620004cb816200043a565b6060870151909350620004de816200043a565b6080870151909250620004f1816200043a565b809150509295509295909350565b634e487b7160e01b600052601160045260246000fd5b60006000198214156200052c576200052c620004ff565b5060010190565b60008219821115620005495762000549620004ff565b500190565b600181811c908216806200056357607f821691505b602082108114156200058557634e487b7160e01b600052602260045260246000fd5b50919050565b608051613edd620005d1600039600081816104c701528181610a8401528181610be001528181610d5301528181611e8101528181611f960152612e1d0152613edd6000f3fe6080604052600436106101c15760003560e01c806395d89b41116100f7578063c87b56dd11610095578063e985e9c511610064578063e985e9c51461051a578063f2fde38b14610570578063f862ab1b14610590578063fbe41874146105c457600080fd5b8063c87b56dd14610495578063d77d5d48146104b5578063dc53fd92146104e9578063df1100c6146104ff57600080fd5b8063b67c25a3116100d1578063b67c25a314610412578063b88d4fde14610444578063bd66cd5314610464578063c87965721461048057600080fd5b806395d89b41146103ad578063a22cb465146103c2578063b51d2512146103e257600080fd5b806342842e0e11610164578063691562a01161013e578063691562a01461033a57806370a082311461034d578063715018a61461036d5780638da5cb5b1461038257600080fd5b806342842e0e146102da5780635d82cf6e146102fa5780636352211e1461031a57600080fd5b8063081812fc116101a0578063081812fc14610232578063095ea7b31461027757806318160ddd1461029757806323b872dd146102ba57600080fd5b806272e9c7146101c657806301ffc9a7146101db57806306fdde0314610210575b600080fd5b6101d96101d4366004613537565b6105d9565b005b3480156101e757600080fd5b506101fb6101f6366004613611565b610ff0565b60405190151581526020015b60405180910390f35b34801561021c57600080fd5b506102256110d5565b60405161020791906136a4565b34801561023e57600080fd5b5061025261024d3660046136b7565b611167565b60405173ffffffffffffffffffffffffffffffffffffffff9091168152602001610207565b34801561028357600080fd5b506101d96102923660046136f2565b611241565b3480156102a357600080fd5b506102ac6113f9565b604051908152602001610207565b3480156102c657600080fd5b506101d96102d536600461371e565b61140f565b3480156102e657600080fd5b506101d96102f536600461371e565b6114b0565b34801561030657600080fd5b506101d96103153660046136b7565b6114cb565b34801561032657600080fd5b506102526103353660046136b7565b6115fc565b6101d961034836600461375f565b6116ae565b34801561035957600080fd5b506102ac61036836600461379e565b61195c565b34801561037957600080fd5b506101d9611a2a565b34801561038e57600080fd5b5060065473ffffffffffffffffffffffffffffffffffffffff16610252565b3480156103b957600080fd5b50610225611ab7565b3480156103ce57600080fd5b506101d96103dd3660046137c9565b611ac6565b3480156103ee57600080fd5b506101fb6103fd3660046136b7565b600b6020526000908152604090205460ff1681565b34801561041e57600080fd5b506006546101fb9074010000000000000000000000000000000000000000900460ff1681565b34801561045057600080fd5b506101d961045f36600461383d565b611ad5565b34801561047057600080fd5b506102ac67011c37937e08000081565b34801561048c57600080fd5b506101d9611b7d565b3480156104a157600080fd5b506102256104b03660046136b7565b611ccf565b3480156104c157600080fd5b506102527f000000000000000000000000000000000000000000000000000000000000000081565b3480156104f557600080fd5b506102ac60075481565b34801561050b57600080fd5b506102ac66470de4df82000081565b34801561052657600080fd5b506101fb6105353660046138ec565b73ffffffffffffffffffffffffffffffffffffffff918216600090815260056020908152604080832093909416825291909152205460ff1690565b34801561057c57600080fd5b506101d961058b36600461379e565b611fd1565b34801561059c57600080fd5b506105b06105ab3660046136b7565b6120fe565b604051610207989796959493929190613984565b3480156105d057600080fd5b506101d9612301565b806105e3816115fc565b73ffffffffffffffffffffffffffffffffffffffff163373ffffffffffffffffffffffffffffffffffffffff16146106a1576040517f08c379a0000000000000000000000000000000000000000000000000000000008152602060048201526024808201527f536869656c64733a206f6e6c79206f776e65722063616e206275696c6420536860448201527f69656c640000000000000000000000000000000000000000000000000000000060648201526084015b60405180910390fd5b600082815260096020526040902054829060ff161561071c576040517f08c379a000000000000000000000000000000000000000000000000000000000815260206004820152601d60248201527f536869656c64733a20536869656c6420616c7265616479206275696c740000006044820152606401610698565b828660788161ffff1614156107bc5760058211156107bc576040517f08c379a000000000000000000000000000000000000000000000000000000000815260206004820152603860248201527f536869656c64733a20546872656520536869656c64732068617264776172652060448201527f726573657276656420666f72204d616b657220426164676500000000000000006064820152608401610698565b88866107c88183612455565b60008b8b8a6040516020016107df93929190613a05565b604080517fffffffffffffffffffffffffffffffffffffffffffffffffffffffffffffffe081840301815291815281516020928301206000818152600b90935291205490915060ff16156108b4576040517f08c379a0000000000000000000000000000000000000000000000000000000008152602060048201526024808201527f536869656c64733a20756e6971756520536869656c6420616c7265616479206260448201527f75696c74000000000000000000000000000000000000000000000000000000006064820152608401610698565b6001600b600083815260200190815260200160002060006101000a81548160ff02191690831515021790555060006040518060c001604052806001151581526020018e61ffff1681526020018d61ffff1681526020018c61ffff16815260200161091d8b6124a3565b600181111561092e5761092e61391a565b815260209081018c905260008b81526009825260409081902083518154938501519285015160608601517fffffffffffffffffffffffffffffffffffffffffffffffffffffffffff0000009095169115157fffffffffffffffffffffffffffffffffffffffffffffffffffffffffff0000ff169190911761010061ffff94851602177fffffffffffffffffffffffffffffffffffffffffffffffffff00000000ffffff166301000000918416919091027fffffffffffffffffffffffffffffffffffffffffffffffffff0000ffffffffff161765010000000000929093169190910291909117808255608083015192935083929082907fffffffffffffffffffffffffffffffffffffffffffffffff00ffffffffffffff16670100000000000000836001811115610a6157610a6161391a565b021790555060a0820151610a7b90600183019060046133ad565b509050506000807f000000000000000000000000000000000000000000000000000000000000000073ffffffffffffffffffffffffffffffffffffffff16631b740a336040518163ffffffff1660e01b8152600401602060405180830381600087803b158015610aea57600080fd5b505af1158015610afe573d6000803e3d6000fd5b505050506040513d601f19601f82011682018060405250810190610b229190613a25565b73ffffffffffffffffffffffffffffffffffffffff1663ccf27bea84602001518560a001516040518363ffffffff1660e01b8152600401610b64929190613a42565b60006040518083038186803b158015610b7c57600080fd5b505afa158015610b90573d6000803e3d6000fd5b505050506040513d6000823e601f3d9081017fffffffffffffffffffffffffffffffffffffffffffffffffffffffffffffffe0168201604052610bd69190810190613aac565b60200151905060007f000000000000000000000000000000000000000000000000000000000000000073ffffffffffffffffffffffffffffffffffffffff1663291c881d6040518163ffffffff1660e01b8152600401602060405180830381600087803b158015610c4657600080fd5b505af1158015610c5a573d6000803e3d6000fd5b505050506040513d601f19601f82011682018060405250810190610c7e9190613a25565b60408086015190517fe6e2e97c00000000000000000000000000000000000000000000000000000000815261ffff909116600482015273ffffffffffffffffffffffffffffffffffffffff919091169063e6e2e97c9060240160006040518083038186803b158015610cef57600080fd5b505afa158015610d03573d6000803e3d6000fd5b505050506040513d6000823e601f3d9081017fffffffffffffffffffffffffffffffffffffffffffffffffffffffffffffffe0168201604052610d499190810190613aac565b60200151905060007f000000000000000000000000000000000000000000000000000000000000000073ffffffffffffffffffffffffffffffffffffffff16632900a9aa6040518163ffffffff1660e01b8152600401602060405180830381600087803b158015610db957600080fd5b505af1158015610dcd573d6000803e3d6000fd5b505050506040513d601f19601f82011682018060405250810190610df19190613a25565b60608601516040517fd0b7314f00000000000000000000000000000000000000000000000000000000815261ffff909116600482015273ffffffffffffffffffffffffffffffffffffffff919091169063d0b7314f9060240160006040518083038186803b158015610e6257600080fd5b505afa158015610e76573d6000803e3d6000fd5b505050506040513d6000823e601f3d9081017fffffffffffffffffffffffffffffffffffffffffffffffffffffffffffffffe0168201604052610ebc9190810190613b50565b6020015190506000836001811115610ed657610ed661391a565b1415610ef057610eed66470de4df82000085613bff565b93505b6001826001811115610f0457610f0461391a565b1415610f1f57610f1c67011c37937e08000085613bff565b93505b610f298185613bff565b9350833414610f94576040517f08c379a000000000000000000000000000000000000000000000000000000000815260206004820152601d60248201527f536869656c64733a20696e76616c6964206275696c64696e67206665650000006044820152606401610698565b505050507f10dee8726629fad96af1a24a83560cb19b9a4f436ecdd488ebc59ad81c623459898e8e8e8e610fc78f6124a3565b604051610fd996959493929190613c17565b60405180910390a150505050505050505050505050565b60007fffffffff0000000000000000000000000000000000000000000000000000000082167f80ac58cd00000000000000000000000000000000000000000000000000000000148061108357507fffffffff0000000000000000000000000000000000000000000000000000000082167f5b5e139f00000000000000000000000000000000000000000000000000000000145b806110cf57507f01ffc9a7000000000000000000000000000000000000000000000000000000007fffffffff000000000000000000000000000000000000000000000000000000008316145b92915050565b6060600080546110e490613c5f565b80601f016020809104026020016040519081016040528092919081815260200182805461111090613c5f565b801561115d5780601f106111325761010080835404028352916020019161115d565b820191906000526020600020905b81548152906001019060200180831161114057829003601f168201915b5050505050905090565b60008181526002602052604081205473ffffffffffffffffffffffffffffffffffffffff16611218576040517f08c379a000000000000000000000000000000000000000000000000000000000815260206004820152602c60248201527f4552433732313a20617070726f76656420717565727920666f72206e6f6e657860448201527f697374656e7420746f6b656e00000000000000000000000000000000000000006064820152608401610698565b5060009081526004602052604090205473ffffffffffffffffffffffffffffffffffffffff1690565b600061124c826115fc565b90508073ffffffffffffffffffffffffffffffffffffffff168373ffffffffffffffffffffffffffffffffffffffff16141561130a576040517f08c379a000000000000000000000000000000000000000000000000000000000815260206004820152602160248201527f4552433732313a20617070726f76616c20746f2063757272656e74206f776e6560448201527f72000000000000000000000000000000000000000000000000000000000000006064820152608401610698565b3373ffffffffffffffffffffffffffffffffffffffff8216148061135e575073ffffffffffffffffffffffffffffffffffffffff8116600090815260056020908152604080832033845290915290205460ff165b6113ea576040517f08c379a000000000000000000000000000000000000000000000000000000000815260206004820152603860248201527f4552433732313a20617070726f76652063616c6c6572206973206e6f74206f7760448201527f6e6572206e6f7220617070726f76656420666f7220616c6c00000000000000006064820152608401610698565b6113f483836124c2565b505050565b6000600160085461140a9190613cad565b905090565b6114193382612562565b6114a5576040517f08c379a000000000000000000000000000000000000000000000000000000000815260206004820152603160248201527f4552433732313a207472616e736665722063616c6c6572206973206e6f74206f60448201527f776e6572206e6f7220617070726f7665640000000000000000000000000000006064820152608401610698565b6113f48383836126d2565b6113f483838360405180602001604052806000815250611ad5565b60065473ffffffffffffffffffffffffffffffffffffffff16331461154c576040517f08c379a000000000000000000000000000000000000000000000000000000000815260206004820181905260248201527f4f776e61626c653a2063616c6c6572206973206e6f7420746865206f776e65726044820152606401610698565b60065474010000000000000000000000000000000000000000900460ff16156115f7576040517f08c379a000000000000000000000000000000000000000000000000000000000815260206004820152602660248201527f536869656c64733a207075626c6963206d696e7420697320616c72656164792060448201527f61637469766500000000000000000000000000000000000000000000000000006064820152608401610698565b600755565b60008181526002602052604081205473ffffffffffffffffffffffffffffffffffffffff16806110cf576040517f08c379a000000000000000000000000000000000000000000000000000000000815260206004820152602960248201527f4552433732313a206f776e657220717565727920666f72206e6f6e657869737460448201527f656e7420746f6b656e00000000000000000000000000000000000000000000006064820152608401610698565b60065474010000000000000000000000000000000000000000900460ff16611758576040517f08c379a000000000000000000000000000000000000000000000000000000000815260206004820152602360248201527f536869656c64733a207075626c6963206d696e74206e6f74206163746976652060448201527f79657400000000000000000000000000000000000000000000000000000000006064820152608401610698565b806117666113886001613bff565b8160ff166008546117779190613bff565b1115611805576040517f08c379a000000000000000000000000000000000000000000000000000000000815260206004820152602160248201527f536869656c64733a207075626c6963206d696e74206d6178206578636565646560448201527f64000000000000000000000000000000000000000000000000000000000000006064820152608401610698565b60058160ff161115611899576040517f08c379a000000000000000000000000000000000000000000000000000000000815260206004820152602e60248201527f536869656c64733a2063616e206f6e6c79206d696e7420757020746f2035207060448201527f6572207472616e73616374696f6e0000000000000000000000000000000000006064820152608401610698565b818060ff166007546118ab9190613cc4565b3414611913576040517f08c379a000000000000000000000000000000000000000000000000000000000815260206004820152601960248201527f536869656c64733a20696e76616c6964206d696e7420666565000000000000006044820152606401610698565b60005b8360ff168160ff161015611955576008805461194391879190600061193a83613d01565b91905055612939565b8061194d81613d3a565b915050611916565b5050505050565b600073ffffffffffffffffffffffffffffffffffffffff8216611a01576040517f08c379a000000000000000000000000000000000000000000000000000000000815260206004820152602a60248201527f4552433732313a2062616c616e636520717565727920666f7220746865207a6560448201527f726f2061646472657373000000000000000000000000000000000000000000006064820152608401610698565b5073ffffffffffffffffffffffffffffffffffffffff1660009081526003602052604090205490565b60065473ffffffffffffffffffffffffffffffffffffffff163314611aab576040517f08c379a000000000000000000000000000000000000000000000000000000000815260206004820181905260248201527f4f776e61626c653a2063616c6c6572206973206e6f7420746865206f776e65726044820152606401610698565b611ab56000612afb565b565b6060600180546110e490613c5f565b611ad1338383612b72565b5050565b611adf3383612562565b611b6b576040517f08c379a000000000000000000000000000000000000000000000000000000000815260206004820152603160248201527f4552433732313a207472616e736665722063616c6c6572206973206e6f74206f60448201527f776e6572206e6f7220617070726f7665640000000000000000000000000000006064820152608401610698565b611b7784848484612ca0565b50505050565b60065473ffffffffffffffffffffffffffffffffffffffff163314611bfe576040517f08c379a000000000000000000000000000000000000000000000000000000000815260206004820181905260248201527f4f776e61626c653a2063616c6c6572206973206e6f7420746865206f776e65726044820152606401610698565b6040805160008082526020820190925233904790604051611c1f9190613d5a565b60006040518083038185875af1925050503d8060008114611c5c576040519150601f19603f3d011682016040523d82523d6000602084013e611c61565b606091505b5050905080611ccc576040517f08c379a000000000000000000000000000000000000000000000000000000000815260206004820152601e60248201527f536869656c64733a206574686572207472616e73666572206661696c656400006044820152606401610698565b50565b60008181526002602052604090205460609073ffffffffffffffffffffffffffffffffffffffff16611d83576040517f08c379a000000000000000000000000000000000000000000000000000000000815260206004820152602860248201527f536869656c64733a2055524920717565727920666f72206e6f6e65786973746560448201527f6e7420746f6b656e0000000000000000000000000000000000000000000000006064820152608401610698565b6000828152600960209081526040808320815160c081018352815460ff8082161515835261ffff610100830481169684019690965263010000008204861694830194909452650100000000008104909416606082015292909160808401916701000000000000009004166001811115611dfe57611dfe61391a565b6001811115611e0f57611e0f61391a565b8152604080516080810191829052602090920191906001840190600490826000855b82829054906101000a900462ffffff1662ffffff1681526020019060030190602082600201049283019260010382029150808411611e3157905050505050508152505090508060000151611f59577f000000000000000000000000000000000000000000000000000000000000000073ffffffffffffffffffffffffffffffffffffffff1663120ea84c611ec4856124a3565b6040518263ffffffff1660e01b8152600401611ee09190613d76565b60006040518083038186803b158015611ef857600080fd5b505afa158015611f0c573d6000803e3d6000fd5b505050506040513d6000823e601f3d9081017fffffffffffffffffffffffffffffffffffffffffffffffffffffffffffffffe0168201604052611f529190810190613d84565b9392505050565b6040517f8ee1d84c00000000000000000000000000000000000000000000000000000000815273ffffffffffffffffffffffffffffffffffffffff7f00000000000000000000000000000000000000000000000000000000000000001690638ee1d84c90611ee0908490600401613db9565b50919050565b60065473ffffffffffffffffffffffffffffffffffffffff163314612052576040517f08c379a000000000000000000000000000000000000000000000000000000000815260206004820181905260248201527f4f776e61626c653a2063616c6c6572206973206e6f7420746865206f776e65726044820152606401610698565b73ffffffffffffffffffffffffffffffffffffffff81166120f5576040517f08c379a000000000000000000000000000000000000000000000000000000000815260206004820152602660248201527f4f776e61626c653a206e6577206f776e657220697320746865207a65726f206160448201527f64647265737300000000000000000000000000000000000000000000000000006064820152608401610698565b611ccc81612afb565b6000806000806000806000806121388960009081526002602052604090205473ffffffffffffffffffffffffffffffffffffffff16151590565b61219e576040517f08c379a000000000000000000000000000000000000000000000000000000000815260206004820152601e60248201527f536869656c643a20746f6b656e494420646f6573206e6f7420657869737400006044820152606401610698565b6000898152600960209081526040808320815160c081018352815460ff8082161515835261ffff6101008304811696840196909652630100000082048616948301949094526501000000000081049094166060820152929091608084019167010000000000000090041660018111156122195761221961391a565b600181111561222a5761222a61391a565b8152604080516080810191829052602090920191906001840190600490826000855b82829054906101000a900462ffffff1662ffffff168152602001906003019060208260020104928301926001038202915080841161224c57905050505050508152505090508060200151816040015182606001518360a001516000600481106122b7576122b7613e1e565b602002015160a08501516001602002015160a08601516002602002015160a08701516003602002015187608001519850985098509850985098509850985050919395975091939597565b60065473ffffffffffffffffffffffffffffffffffffffff163314612382576040517f08c379a000000000000000000000000000000000000000000000000000000000815260206004820181905260248201527f4f776e61626c653a2063616c6c6572206973206e6f7420746865206f776e65726044820152606401610698565b600060075411612414576040517f08c379a000000000000000000000000000000000000000000000000000000000815260206004820152602660248201527f536869656c64733a207075626c6963206d696e74207072696365206e6f74207960448201527f65742073657400000000000000000000000000000000000000000000000000006064820152608401610698565b600680547fffffffffffffffffffffff00ffffffffffffffffffffffffffffffffffffffff1674010000000000000000000000000000000000000000179055565b61ffff811661246957611ad1826001612d43565b60f28161ffff161161248057611ad1826002612d43565b6101258161ffff161161249857611ad1826003612d43565b611ad1826004612d43565b6000600582116124b557506000919050565b506001919050565b919050565b600081815260046020526040902080547fffffffffffffffffffffffff00000000000000000000000000000000000000001673ffffffffffffffffffffffffffffffffffffffff8416908117909155819061251c826115fc565b73ffffffffffffffffffffffffffffffffffffffff167f8c5be1e5ebec7d5bd14f71427d1e84f3dd0314c0f7b2291e5b200ac8c7c3b92560405160405180910390a45050565b60008181526002602052604081205473ffffffffffffffffffffffffffffffffffffffff16612613576040517f08c379a000000000000000000000000000000000000000000000000000000000815260206004820152602c60248201527f4552433732313a206f70657261746f7220717565727920666f72206e6f6e657860448201527f697374656e7420746f6b656e00000000000000000000000000000000000000006064820152608401610698565b600061261e836115fc565b90508073ffffffffffffffffffffffffffffffffffffffff168473ffffffffffffffffffffffffffffffffffffffff16148061268d57508373ffffffffffffffffffffffffffffffffffffffff1661267584611167565b73ffffffffffffffffffffffffffffffffffffffff16145b806126ca575073ffffffffffffffffffffffffffffffffffffffff80821660009081526005602090815260408083209388168352929052205460ff165b949350505050565b8273ffffffffffffffffffffffffffffffffffffffff166126f2826115fc565b73ffffffffffffffffffffffffffffffffffffffff1614612795576040517f08c379a000000000000000000000000000000000000000000000000000000000815260206004820152602960248201527f4552433732313a207472616e73666572206f6620746f6b656e2074686174206960448201527f73206e6f74206f776e00000000000000000000000000000000000000000000006064820152608401610698565b73ffffffffffffffffffffffffffffffffffffffff8216612837576040517f08c379a0000000000000000000000000000000000000000000000000000000008152602060048201526024808201527f4552433732313a207472616e7366657220746f20746865207a65726f2061646460448201527f72657373000000000000000000000000000000000000000000000000000000006064820152608401610698565b6128426000826124c2565b73ffffffffffffffffffffffffffffffffffffffff83166000908152600360205260408120805460019290612878908490613cad565b909155505073ffffffffffffffffffffffffffffffffffffffff821660009081526003602052604081208054600192906128b3908490613bff565b909155505060008181526002602052604080822080547fffffffffffffffffffffffff00000000000000000000000000000000000000001673ffffffffffffffffffffffffffffffffffffffff86811691821790925591518493918716917fddf252ad1be2c89b69c2b068fc378daa952ba7f163c4a11628f55a4df523b3ef91a4505050565b73ffffffffffffffffffffffffffffffffffffffff82166129b6576040517f08c379a000000000000000000000000000000000000000000000000000000000815260206004820181905260248201527f4552433732313a206d696e7420746f20746865207a65726f20616464726573736044820152606401610698565b60008181526002602052604090205473ffffffffffffffffffffffffffffffffffffffff1615612a42576040517f08c379a000000000000000000000000000000000000000000000000000000000815260206004820152601c60248201527f4552433732313a20746f6b656e20616c7265616479206d696e746564000000006044820152606401610698565b73ffffffffffffffffffffffffffffffffffffffff82166000908152600360205260408120805460019290612a78908490613bff565b909155505060008181526002602052604080822080547fffffffffffffffffffffffff00000000000000000000000000000000000000001673ffffffffffffffffffffffffffffffffffffffff861690811790915590518392907fddf252ad1be2c89b69c2b068fc378daa952ba7f163c4a11628f55a4df523b3ef908290a45050565b6006805473ffffffffffffffffffffffffffffffffffffffff8381167fffffffffffffffffffffffff0000000000000000000000000000000000000000831681179093556040519116919082907f8be0079c531659141344cd1fd0a4f28419497f9722a3daafe3b4186f6b6457e090600090a35050565b8173ffffffffffffffffffffffffffffffffffffffff168373ffffffffffffffffffffffffffffffffffffffff161415612c08576040517f08c379a000000000000000000000000000000000000000000000000000000000815260206004820152601960248201527f4552433732313a20617070726f766520746f2063616c6c6572000000000000006044820152606401610698565b73ffffffffffffffffffffffffffffffffffffffff83811660008181526005602090815260408083209487168084529482529182902080547fffffffffffffffffffffffffffffffffffffffffffffffffffffffffffffff001686151590811790915591519182527f17307eab39ab6107e8899845ad3d59bd9653f200f220920489ca2b5937696c31910160405180910390a3505050565b612cab8484846126d2565b612cb7848484846131ae565b611b77576040517f08c379a000000000000000000000000000000000000000000000000000000000815260206004820152603260248201527f4552433732313a207472616e7366657220746f206e6f6e20455243373231526560448201527f63656976657220696d706c656d656e74657200000000000000000000000000006064820152608401610698565b60005b8160ff168160ff16101561305857600a6000848360ff1660048110612d6d57612d6d613e1e565b6020908102919091015162ffffff1682528101919091526040016000205460ff1615612e1b576040517f08c379a000000000000000000000000000000000000000000000000000000000815260206004820152602260248201527f536869656c64733a20616c6c20636f6c6f7273206d75737420626520756e697160448201527f75650000000000000000000000000000000000000000000000000000000000006064820152608401610698565b7f000000000000000000000000000000000000000000000000000000000000000073ffffffffffffffffffffffffffffffffffffffff16631b740a336040518163ffffffff1660e01b8152600401602060405180830381600087803b158015612e8357600080fd5b505af1158015612e97573d6000803e3d6000fd5b505050506040513d601f19601f82011682018060405250810190612ebb9190613a25565b73ffffffffffffffffffffffffffffffffffffffff166339b24bd2848360ff1660048110612eeb57612eeb613e1e565b60200201516040517fffffffff0000000000000000000000000000000000000000000000000000000060e084901b16815262ffffff909116600482015260240160206040518083038186803b158015612f4357600080fd5b505afa158015612f57573d6000803e3d6000fd5b505050506040513d601f19601f82011682018060405250810190612f7b9190613e4d565b612fe1576040517f08c379a000000000000000000000000000000000000000000000000000000000815260206004820152601d60248201527f536869656c64733a20636f6c6f7220646f6573206e6f742065786973740000006044820152606401610698565b6001600a6000858460ff1660048110612ffc57612ffc613e1e565b6020908102919091015162ffffff16825281019190915260400160002080547fffffffffffffffffffffffffffffffffffffffffffffffffffffffffffffff00169115159190911790558061305081613d3a565b915050612d46565b5060005b8160ff168160ff1610156130e1576000600a6000858460ff166004811061308557613085613e1e565b6020908102919091015162ffffff16825281019190915260400160002080547fffffffffffffffffffffffffffffffffffffffffffffffffffffffffffffff0016911515919091179055806130d981613d3a565b91505061305c565b50805b60048160ff1610156113f457828160ff166004811061310557613105613e1e565b602002015162ffffff161561319c576040517f08c379a000000000000000000000000000000000000000000000000000000000815260206004820152602660248201527f536869656c64733a206d617820636f6c6f727320657863656564656420666f7260448201527f206669656c6400000000000000000000000000000000000000000000000000006064820152608401610698565b806131a681613d3a565b9150506130e4565b600073ffffffffffffffffffffffffffffffffffffffff84163b156133a2576040517f150b7a0200000000000000000000000000000000000000000000000000000000815273ffffffffffffffffffffffffffffffffffffffff85169063150b7a0290613225903390899088908890600401613e6a565b602060405180830381600087803b15801561323f57600080fd5b505af192505050801561328d575060408051601f3d9081017fffffffffffffffffffffffffffffffffffffffffffffffffffffffffffffffe016820190925261328a91810190613eb3565b60015b613357573d8080156132bb576040519150601f19603f3d011682016040523d82523d6000602084013e6132c0565b606091505b50805161334f576040517f08c379a000000000000000000000000000000000000000000000000000000000815260206004820152603260248201527f4552433732313a207472616e7366657220746f206e6f6e20455243373231526560448201527f63656976657220696d706c656d656e74657200000000000000000000000000006064820152608401610698565b805181602001fd5b7fffffffff00000000000000000000000000000000000000000000000000000000167f150b7a02000000000000000000000000000000000000000000000000000000001490506126ca565b506001949350505050565b6001830191839082156134365791602002820160005b8382111561340557835183826101000a81548162ffffff021916908362ffffff16021790555092602001926003016020816002010492830192600103026133c3565b80156134345782816101000a81549062ffffff0219169055600301602081600201049283019260010302613405565b505b50613442929150613446565b5090565b5b808211156134425760008155600101613447565b803561ffff811681146124bd57600080fd5b7f4e487b7100000000000000000000000000000000000000000000000000000000600052604160045260246000fd5b6040516080810167ffffffffffffffff811182821017156134bf576134bf61346d565b60405290565b6040516060810167ffffffffffffffff811182821017156134bf576134bf61346d565b604051601f82017fffffffffffffffffffffffffffffffffffffffffffffffffffffffffffffffe016810167ffffffffffffffff8111828210171561352f5761352f61346d565b604052919050565b6000806000806000610100868803121561355057600080fd5b6135598661345b565b9450602061356881880161345b565b94506135766040880161345b565b935087607f88011261358757600080fd5b61358f61349c565b8060e089018a8111156135a157600080fd5b60608a015b818110156135cf57803562ffffff811681146135c25760008081fd5b84529284019284016135a6565b50979a969950949750939535949350505050565b7fffffffff0000000000000000000000000000000000000000000000000000000081168114611ccc57600080fd5b60006020828403121561362357600080fd5b8135611f52816135e3565b60005b83811015613649578181015183820152602001613631565b83811115611b775750506000910152565b6000815180845261367281602086016020860161362e565b601f017fffffffffffffffffffffffffffffffffffffffffffffffffffffffffffffffe0169290920160200192915050565b602081526000611f52602083018461365a565b6000602082840312156136c957600080fd5b5035919050565b73ffffffffffffffffffffffffffffffffffffffff81168114611ccc57600080fd5b6000806040838503121561370557600080fd5b8235613710816136d0565b946020939093013593505050565b60008060006060848603121561373357600080fd5b833561373e816136d0565b9250602084013561374e816136d0565b929592945050506040919091013590565b6000806040838503121561377257600080fd5b823561377d816136d0565b9150602083013560ff8116811461379357600080fd5b809150509250929050565b6000602082840312156137b057600080fd5b8135611f52816136d0565b8015158114611ccc57600080fd5b600080604083850312156137dc57600080fd5b82356137e7816136d0565b91506020830135613793816137bb565b600067ffffffffffffffff8211156138115761381161346d565b50601f017fffffffffffffffffffffffffffffffffffffffffffffffffffffffffffffffe01660200190565b6000806000806080858703121561385357600080fd5b843561385e816136d0565b9350602085013561386e816136d0565b925060408501359150606085013567ffffffffffffffff81111561389157600080fd5b8501601f810187136138a257600080fd5b80356138b56138b0826137f7565b6134e8565b8181528860208385010111156138ca57600080fd5b8160208401602083013760006020838301015280935050505092959194509250565b600080604083850312156138ff57600080fd5b823561390a816136d0565b91506020830135613793816136d0565b7f4e487b7100000000000000000000000000000000000000000000000000000000600052602160045260246000fd5b60028110613980577f4e487b7100000000000000000000000000000000000000000000000000000000600052602160045260246000fd5b9052565b61ffff898116825288811660208301528716604082015262ffffff8681166060830152858116608083015284811660a0830152831660c082015261010081016139d060e0830184613949565b9998505050505050505050565b8060005b6004811015611b7757815162ffffff168452602093840193909101906001016139e1565b61ffff84811682528316602082015260c081016126ca60408301846139dd565b600060208284031215613a3757600080fd5b8151611f52816136d0565b61ffff8316815260a08101611f5260208301846139dd565b600082601f830112613a6b57600080fd5b8151613a796138b0826137f7565b818152846020838601011115613a8e57600080fd5b6126ca82602083016020870161362e565b60028110611ccc57600080fd5b600060208284031215613abe57600080fd5b815167ffffffffffffffff80821115613ad657600080fd5b9083019060608286031215613aea57600080fd5b613af26134c5565b825182811115613b0157600080fd5b613b0d87828601613a5a565b8252506020830151613b1e81613a9f565b6020820152604083015182811115613b3557600080fd5b613b4187828601613a5a565b60408301525095945050505050565b600060208284031215613b6257600080fd5b815167ffffffffffffffff80821115613b7a57600080fd5b9083019060608286031215613b8e57600080fd5b613b966134c5565b825182811115613ba557600080fd5b613bb187828601613a5a565b82525060208301516020820152604083015182811115613b3557600080fd5b7f4e487b7100000000000000000000000000000000000000000000000000000000600052601160045260246000fd5b60008219821115613c1257613c12613bd0565b500190565b86815261ffff86811660208301528581166040830152841660608201526101208101613c4660808301856139dd565b613c54610100830184613949565b979650505050505050565b600181811c90821680613c7357607f821691505b60208210811415611fcb577f4e487b7100000000000000000000000000000000000000000000000000000000600052602260045260246000fd5b600082821015613cbf57613cbf613bd0565b500390565b6000817fffffffffffffffffffffffffffffffffffffffffffffffffffffffffffffffff0483118215151615613cfc57613cfc613bd0565b500290565b60007fffffffffffffffffffffffffffffffffffffffffffffffffffffffffffffffff821415613d3357613d33613bd0565b5060010190565b600060ff821660ff811415613d5157613d51613bd0565b60010192915050565b60008251613d6c81846020870161362e565b9190910192915050565b602081016110cf8284613949565b600060208284031215613d9657600080fd5b815167ffffffffffffffff811115613dad57600080fd5b6126ca84828501613a5a565b600061012082019050825115158252602083015161ffff808216602085015280604086015116604085015280606086015116606085015250506080830151613e046080840182613949565b5060a0830151613e1760a08401826139dd565b5092915050565b7f4e487b7100000000000000000000000000000000000000000000000000000000600052603260045260246000fd5b600060208284031215613e5f57600080fd5b8151611f52816137bb565b600073ffffffffffffffffffffffffffffffffffffffff808716835280861660208401525083604083015260806060830152613ea9608083018461365a565b9695505050505050565b600060208284031215613ec557600080fd5b8151611f52816135e356fea164736f6c6343000809000a"
}