{
  "address": "0x0b1D4e4B39836dED6D25b3911162fc3fFc92CA56",
  "abi": [
    {
      "inputs": [
        {
          "internalType": "contract IFieldGenerator",
          "name": "_fieldGenerator",
          "type": "address"
        },
        {
          "internalType": "contract IHardwareGenerator",
          "name": "_hardwareGenerator",
          "type": "address"
        },
        {
          "internalType": "contract IFrameGenerator",
          "name": "_frameGenerator",
          "type": "address"
        },
        {
          "internalType": "contract IShieldBadgeSVGs",
          "name": "_shieldBadgeSVGGenerator",
          "type": "address"
        }
      ],
      "stateMutability": "nonpayable",
      "type": "constructor"
    },
    {
      "inputs": [],
      "name": "fieldGenerator",
      "outputs": [
        {
          "internalType": "contract IFieldGenerator",
          "name": "",
          "type": "address"
        }
      ],
      "stateMutability": "view",
      "type": "function"
    },
    {
      "inputs": [],
      "name": "frameGenerator",
      "outputs": [
        {
          "internalType": "contract IFrameGenerator",
          "name": "",
          "type": "address"
        }
      ],
      "stateMutability": "view",
      "type": "function"
    },
    {
      "inputs": [
        {
          "internalType": "enum IShields.ShieldBadge",
          "name": "shieldBadge",
          "type": "uint8"
        }
      ],
      "name": "generateShieldBadgeURI",
      "outputs": [
        {
          "internalType": "string",
          "name": "",
          "type": "string"
        }
      ],
      "stateMutability": "view",
      "type": "function"
    },
    {
      "inputs": [
        {
          "components": [
            {
              "internalType": "bool",
              "name": "built",
              "type": "bool"
            },
            {
              "internalType": "uint16",
              "name": "field",
              "type": "uint16"
            },
            {
              "internalType": "uint16",
              "name": "hardware",
              "type": "uint16"
            },
            {
              "internalType": "uint16",
              "name": "frame",
              "type": "uint16"
            },
            {
              "internalType": "enum IShields.ShieldBadge",
              "name": "shieldBadge",
              "type": "uint8"
            },
            {
              "internalType": "uint24[4]",
              "name": "colors",
              "type": "uint24[4]"
            }
          ],
          "internalType": "struct IShields.Shield",
          "name": "shield",
          "type": "tuple"
        }
      ],
      "name": "generateShieldURI",
      "outputs": [
        {
          "internalType": "string",
          "name": "",
          "type": "string"
        }
      ],
      "stateMutability": "view",
      "type": "function"
    },
    {
      "inputs": [],
      "name": "hardwareGenerator",
      "outputs": [
        {
          "internalType": "contract IHardwareGenerator",
          "name": "",
          "type": "address"
        }
      ],
      "stateMutability": "view",
      "type": "function"
    },
    {
      "inputs": [],
      "name": "shieldBadgeSVGGenerator",
      "outputs": [
        {
          "internalType": "contract IShieldBadgeSVGs",
          "name": "",
          "type": "address"
        }
      ],
      "stateMutability": "view",
      "type": "function"
    }
  ],
  "transactionHash": "0x9c2541803708239b933d6cefe998fec97ea5422f20c74cdb8ec2b6344aec07cb",
  "args": [
    "0x53693d7B5FEb1fC93f6c06f82D53fC4877b01f7C",
    "0xED0c628DFD5180B9d6cA96e983db3C1aE1CC3208",
    "0x2d6abEF106B11fEA365BDc8eaa65ecBf46E2a15e",
    "0x38f9f84dE46069fd8c660F800F3995A0ea3c6BAf"
  ],
  "solcInputHash": "d69528a4b69a6281f4bad594fdf80357",
  "bytecode": "0x6101006040523480156200001257600080fd5b50604051620025f3380380620025f3833981016040819052620000359162000071565b6001600160a01b0393841660805291831660a052821660c0521660e052620000d9565b6001600160a01b03811681146200006e57600080fd5b50565b600080600080608085870312156200008857600080fd5b8451620000958162000058565b6020860151909450620000a88162000058565b6040860151909350620000bb8162000058565b6060860151909250620000ce8162000058565b939692955090935050565b60805160a05160c05160e05161249c620001576000396000818161015201526101ff01526000818160f10152610534015260008181610118015261044501526000818160a50152818161031f0152818161098601528181610b0401528181610ca301528181610dc20152818161107801526111b8015261249c6000f3fe608060405234801561001057600080fd5b50600436106100725760003560e01c8063291c881d11610050578063291c881d146101135780638ee1d84c1461013a578063b6c18a9a1461014d57600080fd5b8063120ea84c146100775780631b740a33146100a05780632900a9aa146100ec575b600080fd5b61008a6100853660046113f1565b610174565b6040516100979190611445565b60405180910390f35b6100c77f000000000000000000000000000000000000000000000000000000000000000081565b60405173ffffffffffffffffffffffffffffffffffffffff9091168152602001610097565b6100c77f000000000000000000000000000000000000000000000000000000000000000081565b6100c77f000000000000000000000000000000000000000000000000000000000000000081565b61008a610148366004611546565b610319565b6100c77f000000000000000000000000000000000000000000000000000000000000000081565b606080600083600181111561018b5761018b611622565b14156101cb575060408051808201909152600681527f4d616b657220000000000000000000000000000000000000000000000000000060208201526101f6565b60018360018111156101df576101df611622565b14156101f657506040805160208101909152600081525b6102f2816102cd7f000000000000000000000000000000000000000000000000000000000000000073ffffffffffffffffffffffffffffffffffffffff1663a975e752876040518263ffffffff1660e01b81526004016102569190611651565b60006040518083038186803b15801561026e57600080fd5b505afa158015610282573d6000803e3d6000fd5b505050506040513d6000823e601f3d9081017fffffffffffffffffffffffffffffffffffffffffffffffffffffffffffffffe01682016040526102c89190810190611738565b610662565b6040516020016102de929190611789565b604051602081830303815290604052610662565b60405160200161030291906118f2565b604051602081830303815290604052915050919050565b606060007f000000000000000000000000000000000000000000000000000000000000000073ffffffffffffffffffffffffffffffffffffffff1663ccf27bea84602001518560a001516040518363ffffffff1660e01b8152600401610380929190611937565b60006040518083038186803b15801561039857600080fd5b505afa1580156103ac573d6000803e3d6000fd5b505050506040513d6000823e601f3d9081017fffffffffffffffffffffffffffffffffffffffffffffffffffffffffffffffe01682016040526103f29190810190611978565b60408085015190517fe6e2e97c00000000000000000000000000000000000000000000000000000000815261ffff909116600482015290915060009073ffffffffffffffffffffffffffffffffffffffff7f0000000000000000000000000000000000000000000000000000000000000000169063e6e2e97c9060240160006040518083038186803b15801561048757600080fd5b505afa15801561049b573d6000803e3d6000fd5b505050506040513d6000823e601f3d9081017fffffffffffffffffffffffffffffffffffffffffffffffffffffffffffffffe01682016040526104e19190810190611978565b60608501516040517fd0b7314f00000000000000000000000000000000000000000000000000000000815261ffff909116600482015290915060009073ffffffffffffffffffffffffffffffffffffffff7f0000000000000000000000000000000000000000000000000000000000000000169063d0b7314f9060240160006040518083038186803b15801561057657600080fd5b505afa15801561058a573d6000803e3d6000fd5b505050506040513d6000823e601f3d9081017fffffffffffffffffffffffffffffffffffffffffffffffffffffffffffffffe01682016040526105d09190810190611a1c565b905060006105f08460000151846000015184600001518960a0015161083d565b905060006106048585858a60a001516108b3565b9050610637826106246102c888604001518860400151886040015161091b565b836040516020016102de93929190611a9c565b60405160200161064791906118f2565b60405160208183030381529060405295505050505050919050565b606081516000141561068257505060408051602081019091526000815290565b600060405180606001604052806040815260200161245060409139905060006003845160026106b19190611ccc565b6106bb9190611d13565b6106c6906004611d27565b905060006106d5826020611ccc565b67ffffffffffffffff8111156106ed576106ed611496565b6040519080825280601f01601f191660200182016040528015610717576020820181803683370190505b509050818152600183018586518101602084015b818310156107855760039283018051603f601282901c811687015160f890811b8552600c83901c8216880151811b6001860152600683901c8216880151811b60028601529116860151901b9382019390935260040161072b565b60038951066001811461079f57600281146107e95761082f565b7f3d3d0000000000000000000000000000000000000000000000000000000000007ffffffffffffffffffffffffffffffffffffffffffffffffffffffffffffffffe83015261082f565b7f3d000000000000000000000000000000000000000000000000000000000000007fffffffffffffffffffffffffffffffffffffffffffffffffffffffffffffffff8301525b509398975050505050505050565b6040805160208101909152600081528251606091901561087a57836040516020016108689190611d64565b60405160208183030381529060405290505b80856108858561094a565b886040516020016108999493929190611da5565b604051602081830303815290604052915050949350505050565b6060846000015184600001516108cc8760200151610edc565b6108d98760200151610f6c565b86516108e490610ffa565b6108ed8761103f565b60405160200161090296959493929190611e28565b6040516020818303038152906040529050949350505050565b60608383836040516020016109329392919061200d565b60405160208183030381529060405290509392505050565b80516040517fc4b9c94700000000000000000000000000000000000000000000000000000000815262ffffff90911660048201526060906000907f000000000000000000000000000000000000000000000000000000000000000073ffffffffffffffffffffffffffffffffffffffff169063c4b9c9479060240160006040518083038186803b1580156109dd57600080fd5b505afa1580156109f1573d6000803e3d6000fd5b505050506040513d6000823e601f3d9081017fffffffffffffffffffffffffffffffffffffffffffffffffffffffffffffffe0168201604052610a379190810190611738565b602084015190915062ffffff1615610bd9576040830151819062ffffff16610a94576040518060400160405280600581526020017f20616e6420000000000000000000000000000000000000000000000000000000815250610acb565b6040518060400160405280600181526020017f20000000000000000000000000000000000000000000000000000000000000008152505b60208501516040517fc4b9c94700000000000000000000000000000000000000000000000000000000815262ffffff90911660048201527f000000000000000000000000000000000000000000000000000000000000000073ffffffffffffffffffffffffffffffffffffffff169063c4b9c9479060240160006040518083038186803b158015610b5b57600080fd5b505afa158015610b6f573d6000803e3d6000fd5b505050506040513d6000823e601f3d9081017fffffffffffffffffffffffffffffffffffffffffffffffffffffffffffffffe0168201604052610bb59190810190611738565b604051602001610bc79392919061214a565b60405160208183030381529060405290505b604083015162ffffff1615610d78576060830151819062ffffff16610c33576040518060400160405280600581526020017f20616e6420000000000000000000000000000000000000000000000000000000815250610c6a565b6040518060400160405280600181526020017f20000000000000000000000000000000000000000000000000000000000000008152505b60408086015190517fc4b9c94700000000000000000000000000000000000000000000000000000000815262ffffff90911660048201527f000000000000000000000000000000000000000000000000000000000000000073ffffffffffffffffffffffffffffffffffffffff169063c4b9c9479060240160006040518083038186803b158015610cfa57600080fd5b505afa158015610d0e573d6000803e3d6000fd5b505050506040513d6000823e601f3d9081017fffffffffffffffffffffffffffffffffffffffffffffffffffffffffffffffe0168201604052610d549190810190611738565b604051602001610d669392919061214a565b60405160208183030381529060405290505b606083015162ffffff1615610e965760608301516040517fc4b9c94700000000000000000000000000000000000000000000000000000000815262ffffff909116600482015281907f000000000000000000000000000000000000000000000000000000000000000073ffffffffffffffffffffffffffffffffffffffff169063c4b9c9479060240160006040518083038186803b158015610e1957600080fd5b505afa158015610e2d573d6000803e3d6000fd5b505050506040513d6000823e601f3d9081017fffffffffffffffffffffffffffffffffffffffffffffffffffffffffffffffe0168201604052610e739190810190611738565b604051602001610e8492919061218d565b60405160208183030381529060405290505b80604051602001610ea791906121e5565b604080517fffffffffffffffffffffffffffffffffffffffffffffffffffffffffffffffe08184030181529190529392505050565b60606000826001811115610ef257610ef2611622565b1415610f3157505060408051808201909152600681527f4d79746869630000000000000000000000000000000000000000000000000000602082015290565b5060408051808201909152600881527f486572616c64696300000000000000000000000000000000000000000000000060208201525b919050565b60606001826001811115610f8257610f82611622565b1415610fc157505060408051808201909152600781527f5370656369616c00000000000000000000000000000000000000000000000000602082015290565b505060408051808201909152600881527f5374616e64617264000000000000000000000000000000000000000000000000602082015290565b80516060901561102b57816040516020016110159190612226565b6040516020818303038152906040529050919050565b505060408051602081019091526000815290565b80516040517fc4b9c94700000000000000000000000000000000000000000000000000000000815262ffffff90911660048201526060907f000000000000000000000000000000000000000000000000000000000000000073ffffffffffffffffffffffffffffffffffffffff169063c4b9c9479060240160006040518083038186803b1580156110cf57600080fd5b505afa1580156110e3573d6000803e3d6000fd5b505050506040513d6000823e601f3d9081017fffffffffffffffffffffffffffffffffffffffffffffffffffffffffffffffe01682016040526111299190810190611738565b602083015161113990600261116c565b604084015161114990600361116c565b606085015161115990600461116c565b6040516020016110159493929190612291565b606062ffffff831615611290576111858260ff166112a7565b6040517fc4b9c94700000000000000000000000000000000000000000000000000000000815262ffffff851660048201527f000000000000000000000000000000000000000000000000000000000000000073ffffffffffffffffffffffffffffffffffffffff169063c4b9c9479060240160006040518083038186803b15801561120f57600080fd5b505afa158015611223573d6000803e3d6000fd5b505050506040513d6000823e601f3d9081017fffffffffffffffffffffffffffffffffffffffffffffffffffffffffffffffe01682016040526112699190810190611738565b60405160200161127a92919061236a565b60405160208183030381529060405290506112a1565b506040805160208101909152600081525b92915050565b6060816112e757505060408051808201909152600181527f3000000000000000000000000000000000000000000000000000000000000000602082015290565b8160005b811561131157806112fb816123eb565b915061130a9050600a83611d13565b91506112eb565b60008167ffffffffffffffff81111561132c5761132c611496565b6040519080825280601f01601f191660200182016040528015611356576020820181803683370190505b5090505b84156113d95761136b600183612424565b9150611378600a8661243b565b611383906030611ccc565b60f81b8183815181106113985761139861211b565b60200101907effffffffffffffffffffffffffffffffffffffffffffffffffffffffffffff1916908160001a9053506113d2600a86611d13565b945061135a565b949350505050565b600281106113ee57600080fd5b50565b60006020828403121561140357600080fd5b813561140e816113e1565b9392505050565b60005b83811015611430578181015183820152602001611418565b8381111561143f576000848401525b50505050565b6020815260008251806020840152611464816040850160208701611415565b601f017fffffffffffffffffffffffffffffffffffffffffffffffffffffffffffffffe0169190910160400192915050565b7f4e487b7100000000000000000000000000000000000000000000000000000000600052604160045260246000fd5b60405160c0810167ffffffffffffffff811182821017156114e8576114e8611496565b60405290565b6040516080810167ffffffffffffffff811182821017156114e8576114e8611496565b6040516060810167ffffffffffffffff811182821017156114e8576114e8611496565b803561ffff81168114610f6757600080fd5b600061012080838503121561155a57600080fd5b6115626114c5565b8335801515811461157257600080fd5b81526020611581858201611534565b8183015261159160408601611534565b60408301526115a260608601611534565b606083015260808501356115b5816113e1565b608083015260bf850186136115c957600080fd5b6115d16114ee565b9285019280878511156115e357600080fd5b60a087015b8581101561161157803562ffffff811681146116045760008081fd5b83529183019183016115e8565b5060a0840152509095945050505050565b7f4e487b7100000000000000000000000000000000000000000000000000000000600052602160045260246000fd5b602081016002831061168c577f4e487b7100000000000000000000000000000000000000000000000000000000600052602160045260246000fd5b91905290565b600082601f8301126116a357600080fd5b815167ffffffffffffffff808211156116be576116be611496565b604051601f83017fffffffffffffffffffffffffffffffffffffffffffffffffffffffffffffffe0908116603f0116810190828211818310171561170457611704611496565b8160405283815286602085880101111561171d57600080fd5b61172e846020830160208901611415565b9695505050505050565b60006020828403121561174a57600080fd5b815167ffffffffffffffff81111561176157600080fd5b6113d984828501611692565b6000815161177f818560208601611415565b9290920192915050565b7f7b226e616d65223a2200000000000000000000000000000000000000000000008152600083516117c1816009850160208801611415565b7f536869656c6420426164676500000000000000000000000000000000000000006009918401918201527f222c20226465736372697074696f6e223a22416e20756e75736564205368696560158201527f6c642042616467652e2043616e206265207573656420746f206275696c64203160358201527f20536869656c642e222c2022696d616765223a2022646174613a696d6167652f60558201527f7376672b786d6c3b6261736536342c000000000000000000000000000000000060758201528351611896816084840160208801611415565b7f222c202261747472696275746573223a205b7b2274726169745f74797065223a608492909101918201527f2022537461747573222c202276616c7565223a22556e6275696c74227d5d7d0060a482015260c301949350505050565b7f646174613a6170706c69636174696f6e2f6a736f6e3b6261736536342c00000081526000825161192a81601d850160208701611415565b91909101601d0192915050565b61ffff8316815260a0810160208083018460005b600481101561196d57815162ffffff168352918301919083019060010161194b565b505050509392505050565b60006020828403121561198a57600080fd5b815167ffffffffffffffff808211156119a257600080fd5b90830190606082860312156119b657600080fd5b6119be611511565b8251828111156119cd57600080fd5b6119d987828601611692565b82525060208301516119ea816113e1565b6020820152604083015182811115611a0157600080fd5b611a0d87828601611692565b60408301525095945050505050565b600060208284031215611a2e57600080fd5b815167ffffffffffffffff80821115611a4657600080fd5b9083019060608286031215611a5a57600080fd5b611a62611511565b825182811115611a7157600080fd5b611a7d87828601611692565b82525060208301516020820152604083015182811115611a0157600080fd5b7f7b226e616d65223a220000000000000000000000000000000000000000000000815260008451611ad4816009850160208901611415565b7f222c20226465736372697074696f6e223a223530303020536869656c64732c206009918401918201527f64657369676e656420616e64206275696c74206f6e2d636861696e207769746860298201527f204172656120546563686e6f6c6f67792e204561636820536869656c6420697360498201527f20636f6d706f73656420627920746865206f776e6572206f662061205368696560698201527f6c64204261646765207573696e672074686520456d626c656d7765617665722060898201527f736f6674776172652c207468656e206275696c74207573696e6720417265610060a98201527f270000000000000000000000000000000000000000000000000000000000000060c88201527f732070726f7072696574617279206d616368696e6572792e222c2022696d616760c98201527f65223a2022646174613a696d6167652f7376672b786d6c3b6261736536342c0060e982015261172e611c74611c6e611c4561010885018961176d565b7f222c202261747472696275746573223a20000000000000000000000000000000815260110190565b8661176d565b7f7d00000000000000000000000000000000000000000000000000000000000000815260010190565b7f4e487b7100000000000000000000000000000000000000000000000000000000600052601160045260246000fd5b60008219821115611cdf57611cdf611c9d565b500190565b7f4e487b7100000000000000000000000000000000000000000000000000000000600052601260045260246000fd5b600082611d2257611d22611ce4565b500490565b6000817fffffffffffffffffffffffffffffffffffffffffffffffffffffffffffffffff0483118215151615611d5f57611d5f611c9d565b500290565b60008251611d76818460208701611415565b7f3a20000000000000000000000000000000000000000000000000000000000000920191825250600201919050565b60008551611db7818460208a01611415565b855190830190611dcb818360208a01611415565b7f206f6e200000000000000000000000000000000000000000000000000000000091019081528451611e04816004840160208901611415565b8451910190611e1a816004840160208801611415565b016004019695505050505050565b7f5b7b2274726169745f74797065223a224669656c64222c202276616c7565223a81527f2200000000000000000000000000000000000000000000000000000000000000602082015260008751611e86816021850160208c01611415565b7f227d2c207b2274726169745f74797065223a224861726477617265222c2022766021918401918201527f616c7565223a220000000000000000000000000000000000000000000000000060418201528751611ee9816048840160208c01611415565b7f227d2c207b2274726169745f74797065223a22537461747573222c202276616c604892909101918201527f7565223a224275696c740000000000000000000000000000000000000000000060688201527f227d2c207b2274726169745f74797065223a224669656c642054797065222c2060728201527f2276616c7565223a2200000000000000000000000000000000000000000000006092820152612000611ffa611ff4611fee611f9f609b86018c61176d565b7f227d2c207b2274726169745f74797065223a224861726477617265205479706581527f222c202276616c7565223a2200000000000000000000000000000000000000006020820152602c0190565b8961176d565b8761176d565b8561176d565b9998505050505050505050565b7f3c73766720786d6c6e733d22687474703a2f2f7777772e77332e6f72672f323081527f30302f7376672220786d6c6e733a786c696e6b3d22687474703a2f2f7777772e60208201527f77332e6f72672f313939392f786c696e6b222076696577426f783d223020302060408201527f32323020323634223e00000000000000000000000000000000000000000000006060820152600084516120b7816069850160208901611415565b8451908301906120ce816069840160208901611415565b84519101906120e4816069840160208801611415565b7f3c2f7376673e000000000000000000000000000000000000000000000000000060699290910191820152606f0195945050505050565b7f4e487b7100000000000000000000000000000000000000000000000000000000600052603260045260246000fd5b6000845161215c818460208901611415565b845190830190612170818360208901611415565b8451910190612183818360208801611415565b0195945050505050565b6000835161219f818460208801611415565b7f20616e642000000000000000000000000000000000000000000000000000000090830190815283516121d9816005840160208801611415565b01600501949350505050565b600082516121f7818460208701611415565b7f2000000000000000000000000000000000000000000000000000000000000000920191825250600101919050565b7f227d2c207b2274726169745f74797065223a224672616d65222c202276616c7581527f65223a2200000000000000000000000000000000000000000000000000000000602082015260008251612284816024850160208701611415565b9190910160240192915050565b7f227d2c207b2274726169745f74797065223a22436f6c6f722031222c2022766181527f6c7565223a2200000000000000000000000000000000000000000000000000006020820152600085516122ef816026850160208a01611415565b855190830190612306816026840160208a01611415565b855191019061231c816026840160208901611415565b8451910190612332816026840160208801611415565b7f227d5d0000000000000000000000000000000000000000000000000000000000602692909101918201526029019695505050505050565b7f227d2c207b2274726169745f74797065223a22436f6c6f7220000000000000008152600083516123a2816019850160208801611415565b7f222c202276616c7565223a22000000000000000000000000000000000000000060199184019182015283516123df816025840160208801611415565b01602501949350505050565b60007fffffffffffffffffffffffffffffffffffffffffffffffffffffffffffffffff82141561241d5761241d611c9d565b5060010190565b60008282101561243657612436611c9d565b500390565b60008261244a5761244a611ce4565b50069056fe4142434445464748494a4b4c4d4e4f505152535455565758595a6162636465666768696a6b6c6d6e6f707172737475767778797a303132333435363738392b2fa164736f6c6343000809000a"
}