{
  "address": "0x0230eB753Df1A12063B357EB5e3A4F9Ce0780C1F",
  "abi": [
    {
      "inputs": [
        {
          "internalType": "uint24[]",
          "name": "__colors",
          "type": "uint24[]"
        },
        {
          "internalType": "string[]",
          "name": "titles",
          "type": "string[]"
        },
        {
          "components": [
            {
              "internalType": "contract IFieldSVGs",
              "name": "fieldSVGs1",
              "type": "address"
            },
            {
              "internalType": "contract IFieldSVGs",
              "name": "fieldSVGs2",
              "type": "address"
            },
            {
              "internalType": "contract IFieldSVGs",
              "name": "fieldSVGs3",
              "type": "address"
            },
            {
              "internalType": "contract IFieldSVGs",
              "name": "fieldSVGs4",
              "type": "address"
            },
            {
              "internalType": "contract IFieldSVGs",
              "name": "fieldSVGs5",
              "type": "address"
            },
            {
              "internalType": "contract IFieldSVGs",
              "name": "fieldSVGs6",
              "type": "address"
            },
            {
              "internalType": "contract IFieldSVGs",
              "name": "fieldSVGs7",
              "type": "address"
            },
            {
              "internalType": "contract IFieldSVGs",
              "name": "fieldSVGs8",
              "type": "address"
            },
            {
              "internalType": "contract IFieldSVGs",
              "name": "fieldSVGs9",
              "type": "address"
            },
            {
              "internalType": "contract IFieldSVGs",
              "name": "fieldSVGs10",
              "type": "address"
            },
            {
              "internalType": "contract IFieldSVGs",
              "name": "fieldSVGs11",
              "type": "address"
            },
            {
              "internalType": "contract IFieldSVGs",
              "name": "fieldSVGs12",
              "type": "address"
            },
            {
              "internalType": "contract IFieldSVGs",
              "name": "fieldSVGs13",
              "type": "address"
            },
            {
              "internalType": "contract IFieldSVGs",
              "name": "fieldSVGs14",
              "type": "address"
            },
            {
              "internalType": "contract IFieldSVGs",
              "name": "fieldSVGs15",
              "type": "address"
            },
            {
              "internalType": "contract IFieldSVGs",
              "name": "fieldSVGs16",
              "type": "address"
            },
            {
              "internalType": "contract IFieldSVGs",
              "name": "fieldSVGs17",
              "type": "address"
            },
            {
              "internalType": "contract IFieldSVGs",
              "name": "fieldSVGs18",
              "type": "address"
            },
            {
              "internalType": "contract IFieldSVGs",
              "name": "fieldSVGs19",
              "type": "address"
            },
            {
              "internalType": "contract IFieldSVGs",
              "name": "fieldSVGs20",
              "type": "address"
            },
            {
              "internalType": "contract IFieldSVGs",
              "name": "fieldSVGs21",
              "type": "address"
            },
            {
              "internalType": "contract IFieldSVGs",
              "name": "fieldSVGs22",
              "type": "address"
            },
            {
              "internalType": "contract IFieldSVGs",
              "name": "fieldSVGs23",
              "type": "address"
            },
            {
              "internalType": "contract IFieldSVGs",
              "name": "fieldSVGs24",
              "type": "address"
            }
          ],
          "internalType": "struct IFieldGenerator.FieldSVGs",
          "name": "svgs",
          "type": "tuple"
        }
      ],
      "stateMutability": "nonpayable",
      "type": "constructor"
    },
    {
      "anonymous": false,
      "inputs": [
        {
          "indexed": false,
          "internalType": "uint24",
          "name": "color",
          "type": "uint24"
        },
        {
          "indexed": false,
          "internalType": "string",
          "name": "title",
          "type": "string"
        }
      ],
      "name": "ColorAdded",
      "type": "event"
    },
    {
      "inputs": [
        {
          "internalType": "uint24",
          "name": "color",
          "type": "uint24"
        }
      ],
      "name": "colorExists",
      "outputs": [
        {
          "internalType": "bool",
          "name": "",
          "type": "bool"
        }
      ],
      "stateMutability": "view",
      "type": "function"
    },
    {
      "inputs": [
        {
          "internalType": "uint24",
          "name": "color",
          "type": "uint24"
        }
      ],
      "name": "colorTitle",
      "outputs": [
        {
          "internalType": "string",
          "name": "",
          "type": "string"
        }
      ],
      "stateMutability": "view",
      "type": "function"
    },
    {
      "inputs": [
        {
          "internalType": "uint16",
          "name": "field",
          "type": "uint16"
        },
        {
          "internalType": "uint24[4]",
          "name": "colors",
          "type": "uint24[4]"
        }
      ],
      "name": "generateField",
      "outputs": [
        {
          "components": [
            {
              "internalType": "string",
              "name": "title",
              "type": "string"
            },
            {
              "internalType": "enum ICategories.FieldCategories",
              "name": "fieldType",
              "type": "uint8"
            },
            {
              "internalType": "string",
              "name": "svgString",
              "type": "string"
            }
          ],
          "internalType": "struct IFieldSVGs.FieldData",
          "name": "",
          "type": "tuple"
        }
      ],
      "stateMutability": "view",
      "type": "function"
    }
  ],
  "transactionHash": "0x517c381df70c681b94b29ea7c1b20fff7170c87a477191c7f7ddb3db26b7cb09",
  "args": [
    [
      16711802,
      7088290,
      16678911,
      13882323,
      3289650,
      7884860,
      32767,
      11862026,
      16739072,
      16757504,
      25425,
      13565696
    ],
    [
      "Pink",
      "Ultraviolet",
      "Rose",
      "Gray",
      "Onyx",
      "Brown",
      "Sky",
      "Crimson",
      "Citrine",
      "Gold",
      "Evergreen",
      "Hi-Vis"
    ],
    {
      "fieldSVGs1": "0xbac486f6db3953812f6854c9dd09765794109bdb",
      "fieldSVGs2": "0x4f664346c42e3095377d1767f44321b219acf9ec",
      "fieldSVGs3": "0x0d2ad11f09a4ddd4286fd063f542fd811f1c7f6f",
      "fieldSVGs4": "0x88bba3060962a832a31f69e3d7ed420d5b8293f3",
      "fieldSVGs5": "0x00fc2fdd9a99c684aa6768363502284ebbcf4269",
      "fieldSVGs6": "0xc1ca003b6e0660c77b573620d2d6a81b4b5f9793",
      "fieldSVGs7": "0x03d485b8a4f504f38b662067a2c84c89d50c3c2b",
      "fieldSVGs8": "0xfff5e2209f8d5bb58ba51d6c257301522abef471",
      "fieldSVGs9": "0xa2c53930962a883d030bcf8f7ee3bd12610e52c6",
      "fieldSVGs10": "0x9ccbdebbbc72bfde33f1c9f17eb796510e7064b4",
      "fieldSVGs11": "0x112dd5a5301479b2f831bd240161b63a1aa1e09b",
      "fieldSVGs12": "0x0ad30a591f813893471ab6a630f42efc2079d118",
      "fieldSVGs13": "0x19369e65ff78344d8472f8691085a125015fd9ff",
      "fieldSVGs14": "0x36d9a6d581b347db53aebf8947942dbfafcfae96",
      "fieldSVGs15": "0x0a0f4b28a679ce4b2c08e46bc690dd35917c362b",
      "fieldSVGs16": "0xaae15a0e3f0f9b4264cd5dafdb08c036c7208ec2",
      "fieldSVGs17": "0xea0082e7678fd16cce596824a552d9d38f2c6096",
      "fieldSVGs18": "0x760737a2d3dab4e65939e10384b2da1ebe3e34d0",
      "fieldSVGs19": "0x6dcb8e749a3491c21487ef733713d353425cec81",
      "fieldSVGs20": "0xfadb4b43671aa379d443ffc4ec98d2af2808ebe5",
      "fieldSVGs21": "0xa5bfc8dfcaf5581726621dc8ddc0f1ca24ea95a7",
      "fieldSVGs22": "0xfb0923a34453543c10e224d60e5130f75a17c9fc",
      "fieldSVGs23": "0xfbe0d022e288a28aff0d8ceaf2bf4a35b04e177b",
      "fieldSVGs24": "0x19eb0b13501c0176f81acbcce4d6d32083c5adad"
    }
  ],
  "solcInputHash": "d28a8c5f5f1014153754a39e08baa75b",
  "bytecode": "0x6103806040523480156200001257600080fd5b5060405162001a7438038062001a748339810160408190526200003591620007f2565b81518351146200008c5760405162461bcd60e51b815260206004820152601560248201527f696e76616c6964206172726179206c656e67746873000000000000000000000060448201526064015b60405180910390fd5b60005b83518110156200024957838181518110620000ae57620000ae620008e0565b602002602001015162ffffff1660001415620001185760405162461bcd60e51b815260206004820152602260248201527f4669656c6447656e657261746f723a20636f6c6f72732063616e6e6f74206265604482015261020360f41b606482015260840162000083565b6040518060400160405280848381518110620001385762000138620008e0565b6020026020010151815260200160011515815250600080868481518110620001645762000164620008e0565b602002602001015162ffffff1662ffffff1681526020019081526020016000206000820151816000019080519060200190620001a29291906200036f565b50602091909101516001909101805460ff191691151591909117905583517f478f10d8e11891a1e4cd518c453185dc9165171198ca042ff0cd963e468974af90859083908110620001f757620001f7620008e0565b6020026020010151848381518110620002145762000214620008e0565b60200260200101516040516200022c929190620008f6565b60405180910390a180620002408162000937565b9150506200008f565b5080516001600160a01b0390811660809081526020830151821660a09081526040840151831660c09081526060850151841660e09081529285015184166101009081529185015184166101209081529085015184166101409081529285015184166101609081529185015184166101809081529085015184166101a09081529285015184166101c09081529185015184166101e09081529085015184166102009081529285015184166102209081529185015184166102409081529085015184166102609081529285015184166102809081529185015184166102a09081529085015184166102c09081529285015184166102e09081529185015184166103005284015183166103205290830151821661034052909101511661036052506200099e9050565b8280546200037d9062000961565b90600052602060002090601f016020900481019282620003a15760008555620003ec565b82601f10620003bc57805160ff1916838001178555620003ec565b82800160010185558215620003ec579182015b82811115620003ec578251825591602001919060010190620003cf565b50620003fa929150620003fe565b5090565b5b80821115620003fa5760008155600101620003ff565b634e487b7160e01b600052604160045260246000fd5b60405161030081016001600160401b038111828210171562000451576200045162000415565b60405290565b604051601f8201601f191681016001600160401b038111828210171562000482576200048262000415565b604052919050565b60006001600160401b03821115620004a657620004a662000415565b5060051b60200190565b60005b83811015620004cd578181015183820152602001620004b3565b83811115620004dd576000848401525b50505050565b6000601f8381840112620004f657600080fd5b825160206200050f62000509836200048a565b62000457565b82815260059290921b850181019181810190878411156200052f57600080fd5b8287015b84811015620005d15780516001600160401b0380821115620005555760008081fd5b818a0191508a603f8301126200056b5760008081fd5b8582015160408282111562000584576200058462000415565b62000597828b01601f1916890162000457565b92508183528c81838601011115620005af5760008081fd5b620005c082898501838701620004b0565b505084525091830191830162000533565b50979650505050505050565b80516001600160a01b0381168114620005f557600080fd5b919050565b600061030082840312156200060e57600080fd5b620006186200042b565b90506200062582620005dd565b81526200063560208301620005dd565b60208201526200064860408301620005dd565b60408201526200065b60608301620005dd565b60608201526200066e60808301620005dd565b60808201526200068160a08301620005dd565b60a08201526200069460c08301620005dd565b60c0820152620006a760e08301620005dd565b60e0820152610100620006bc818401620005dd565b90820152610120620006d0838201620005dd565b90820152610140620006e4838201620005dd565b90820152610160620006f8838201620005dd565b908201526101806200070c838201620005dd565b908201526101a062000720838201620005dd565b908201526101c062000734838201620005dd565b908201526101e062000748838201620005dd565b908201526102006200075c838201620005dd565b9082015261022062000770838201620005dd565b9082015261024062000784838201620005dd565b9082015261026062000798838201620005dd565b90820152610280620007ac838201620005dd565b908201526102a0620007c0838201620005dd565b908201526102c0620007d4838201620005dd565b908201526102e0620007e8838201620005dd565b9082015292915050565b600080600061034084860312156200080957600080fd5b83516001600160401b03808211156200082157600080fd5b818601915086601f8301126200083657600080fd5b815160206200084962000509836200048a565b82815260059290921b8401810191818101908a8411156200086957600080fd5b948201945b838610156200089c57855162ffffff811681146200088c5760008081fd5b825294820194908201906200086e565b91890151919750909350505080821115620008b657600080fd5b50620008c586828701620004e3565b925050620008d78560408601620005fa565b90509250925092565b634e487b7160e01b600052603260045260246000fd5b62ffffff83168152604060208201526000825180604084015262000922816060850160208701620004b0565b601f01601f1916919091016060019392505050565b60006000198214156200095a57634e487b7160e01b600052601160045260246000fd5b5060010190565b600181811c908216806200097657607f821691505b602082108114156200099857634e487b7160e01b600052602260045260246000fd5b50919050565b60805160a05160c05160e05161010051610120516101405161016051610180516101a0516101c0516101e05161020051610220516102405161026051610280516102a0516102c0516102e05161030051610320516103405161036051610fc062000ab4600039600061069a0152600061066101526000610629015260006105f1015260006105b9015260006105810152600061054901526000610512015260006104db015260006104a40152600061046d01526000610436015260006103ff015260006103c8015260006103910152600061035a01526000610323015260006102ec015260006102b50152600061027e0152600061024701526000610210015260006101d90152600061019b0152610fc06000f3fe608060405234801561001057600080fd5b50600436106100415760003560e01c806339b24bd214610046578063c4b9c94714610086578063ccf27bea146100a6575b600080fd5b6100716100543660046109eb565b62ffffff1660009081526020819052604090206001015460ff1690565b60405190151581526020015b60405180910390f35b6100996100943660046109eb565b6100c6565b60405161007d9190610a87565b6100b96100b4366004610af2565b61016e565b60405161007d9190610b93565b62ffffff811660009081526020819052604090208054606091906100e990610c36565b80601f016020809104026020016040519081016040528092919081815260200182805461011590610c36565b80156101625780601f1061013757610100808354040283529160200191610162565b820191906000526020600020905b81548152906001019060200180831161014557829003601f168201915b50505050509050919050565b60408051606080820183528082526000602083015291810191909152601b8361ffff16116101c8576101c17f0000000000000000000000000000000000000000000000000000000000000000848461072c565b9050610726565b60328361ffff16116101ff576101c17f0000000000000000000000000000000000000000000000000000000000000000848461072c565b60428361ffff1611610236576101c17f0000000000000000000000000000000000000000000000000000000000000000848461072c565b60598361ffff161161026d576101c17f0000000000000000000000000000000000000000000000000000000000000000848461072c565b606e8361ffff16116102a4576101c17f0000000000000000000000000000000000000000000000000000000000000000848461072c565b60848361ffff16116102db576101c17f0000000000000000000000000000000000000000000000000000000000000000848461072c565b60968361ffff1611610312576101c17f0000000000000000000000000000000000000000000000000000000000000000848461072c565b60aa8361ffff1611610349576101c17f0000000000000000000000000000000000000000000000000000000000000000848461072c565b60b18361ffff1611610380576101c17f0000000000000000000000000000000000000000000000000000000000000000848461072c565b60c18361ffff16116103b7576101c17f0000000000000000000000000000000000000000000000000000000000000000848461072c565b60c68361ffff16116103ee576101c17f0000000000000000000000000000000000000000000000000000000000000000848461072c565b60cd8361ffff1611610425576101c17f0000000000000000000000000000000000000000000000000000000000000000848461072c565b60d38361ffff161161045c576101c17f0000000000000000000000000000000000000000000000000000000000000000848461072c565b60d98361ffff1611610493576101c17f0000000000000000000000000000000000000000000000000000000000000000848461072c565b60df8361ffff16116104ca576101c17f0000000000000000000000000000000000000000000000000000000000000000848461072c565b60e38361ffff1611610501576101c17f0000000000000000000000000000000000000000000000000000000000000000848461072c565b60e98361ffff1611610538576101c17f0000000000000000000000000000000000000000000000000000000000000000848461072c565b60f38361ffff161161056f576101c17f0000000000000000000000000000000000000000000000000000000000000000848461072c565b6101068361ffff16116105a7576101c17f0000000000000000000000000000000000000000000000000000000000000000848461072c565b6101138361ffff16116105df576101c17f0000000000000000000000000000000000000000000000000000000000000000848461072c565b61011c8361ffff1611610617576101c17f0000000000000000000000000000000000000000000000000000000000000000848461072c565b6101218361ffff161161064f576101c17f0000000000000000000000000000000000000000000000000000000000000000848461072c565b61012a8361ffff1611610687576101c17f0000000000000000000000000000000000000000000000000000000000000000848461072c565b8261ffff1661012b14156106c0576101c17f0000000000000000000000000000000000000000000000000000000000000000848461072c565b6040517f08c379a000000000000000000000000000000000000000000000000000000000815260206004820152601760248201527f696e76616c6964206669656c642073656c656374696f6e000000000000000000604482015260640160405180910390fd5b92915050565b6040805160608082018352808252600060208301819052928201529061075561ffff8516610899565b6040516020016107659190610c8a565b6040516020818303038152906040529050600060608673ffffffffffffffffffffffffffffffffffffffff168380519060200120866040516024016107aa9190610cf6565b604080517fffffffffffffffffffffffffffffffffffffffffffffffffffffffffffffffe08184030181529181526020820180517bffffffffffffffffffffffffffffffffffffffffffffffffffffffff167fffffffff000000000000000000000000000000000000000000000000000000009094169390931790925290516108339190610d2c565b600060405180830381855afa9150503d806000811461086e576040519150601f19603f3d011682016040523d82523d6000602084013e610873565b606091505b508051919350915061088e9082016020908101908301610dee565b979650505050505050565b6060816108d957505060408051808201909152600181527f3000000000000000000000000000000000000000000000000000000000000000602082015290565b8160005b811561090357806108ed81610ec5565b91506108fc9050600a83610f2d565b91506108dd565b60008167ffffffffffffffff81111561091e5761091e610a9a565b6040519080825280601f01601f191660200182016040528015610948576020820181803683370190505b5090505b84156109cb5761095d600183610f41565b915061096a600a86610f58565b610975906030610f6c565b60f81b81838151811061098a5761098a610f84565b60200101907effffffffffffffffffffffffffffffffffffffffffffffffffffffffffffff1916908160001a9053506109c4600a86610f2d565b945061094c565b949350505050565b803562ffffff811681146109e657600080fd5b919050565b6000602082840312156109fd57600080fd5b610a06826109d3565b9392505050565b60005b83811015610a28578181015183820152602001610a10565b83811115610a37576000848401525b50505050565b60008151808452610a55816020860160208601610a0d565b601f017fffffffffffffffffffffffffffffffffffffffffffffffffffffffffffffffe0169290920160200192915050565b602081526000610a066020830184610a3d565b7f4e487b7100000000000000000000000000000000000000000000000000000000600052604160045260246000fd5b6040516060810167ffffffffffffffff81118282101715610aec57610aec610a9a565b60405290565b60008060a08385031215610b0557600080fd5b823561ffff81168114610b1757600080fd5b91506020603f84018513610b2a57600080fd5b6040516080810181811067ffffffffffffffff82111715610b4d57610b4d610a9a565b6040528060a0860187811115610b6257600080fd5b8387015b81811015610b8457610b77816109d3565b8352918401918401610b66565b50505080925050509250929050565b602081526000825160606020840152610baf6080840182610a3d565b9050602084015160028110610bed577f4e487b7100000000000000000000000000000000000000000000000000000000600052602160045260246000fd5b8060408501525060408401517fffffffffffffffffffffffffffffffffffffffffffffffffffffffffffffffe0848303016060850152610c2d8282610a3d565b95945050505050565b600181811c90821680610c4a57607f821691505b60208210811415610c84577f4e487b7100000000000000000000000000000000000000000000000000000000600052602260045260246000fd5b50919050565b7f6669656c645f0000000000000000000000000000000000000000000000000000815260008251610cc2816006850160208701610a0d565b7f2875696e7432345b345d290000000000000000000000000000000000000000006006939091019283015250601101919050565b60808101818360005b6004811015610d2357815162ffffff16835260209283019290910190600101610cff565b50505092915050565b60008251610d3e818460208701610a0d565b9190910192915050565b600082601f830112610d5957600080fd5b815167ffffffffffffffff80821115610d7457610d74610a9a565b604051601f83017fffffffffffffffffffffffffffffffffffffffffffffffffffffffffffffffe0908116603f01168101908282118183101715610dba57610dba610a9a565b81604052838152866020858801011115610dd357600080fd5b610de4846020830160208901610a0d565b9695505050505050565b600060208284031215610e0057600080fd5b815167ffffffffffffffff80821115610e1857600080fd5b9083019060608286031215610e2c57600080fd5b610e34610ac9565b825182811115610e4357600080fd5b610e4f87828601610d48565b825250602083015160028110610e6457600080fd5b6020820152604083015182811115610e7b57600080fd5b610e8787828601610d48565b60408301525095945050505050565b7f4e487b7100000000000000000000000000000000000000000000000000000000600052601160045260246000fd5b60007fffffffffffffffffffffffffffffffffffffffffffffffffffffffffffffffff821415610ef757610ef7610e96565b5060010190565b7f4e487b7100000000000000000000000000000000000000000000000000000000600052601260045260246000fd5b600082610f3c57610f3c610efe565b500490565b600082821015610f5357610f53610e96565b500390565b600082610f6757610f67610efe565b500690565b60008219821115610f7f57610f7f610e96565b500190565b7f4e487b7100000000000000000000000000000000000000000000000000000000600052603260045260246000fdfea164736f6c6343000809000a"
}