{
  "address": "0x355944B17A0770190eCB375ec3E64b98Cb31a576",
  "abi": [
    {
      "inputs": [
        {
          "components": [
            {
              "internalType": "contract IHardwareSVGs",
              "name": "hardwareSVGs1",
              "type": "address"
            },
            {
              "internalType": "contract IHardwareSVGs",
              "name": "hardwareSVGs2",
              "type": "address"
            },
            {
              "internalType": "contract IHardwareSVGs",
              "name": "hardwareSVGs3",
              "type": "address"
            },
            {
              "internalType": "contract IHardwareSVGs",
              "name": "hardwareSVGs4",
              "type": "address"
            },
            {
              "internalType": "contract IHardwareSVGs",
              "name": "hardwareSVGs5",
              "type": "address"
            },
            {
              "internalType": "contract IHardwareSVGs",
              "name": "hardwareSVGs6",
              "type": "address"
            },
            {
              "internalType": "contract IHardwareSVGs",
              "name": "hardwareSVGs7",
              "type": "address"
            },
            {
              "internalType": "contract IHardwareSVGs",
              "name": "hardwareSVGs8",
              "type": "address"
            },
            {
              "internalType": "contract IHardwareSVGs",
              "name": "hardwareSVGs9",
              "type": "address"
            },
            {
              "internalType": "contract IHardwareSVGs",
              "name": "hardwareSVGs10",
              "type": "address"
            },
            {
              "internalType": "contract IHardwareSVGs",
              "name": "hardwareSVGs11",
              "type": "address"
            },
            {
              "internalType": "contract IHardwareSVGs",
              "name": "hardwareSVGs12",
              "type": "address"
            },
            {
              "internalType": "contract IHardwareSVGs",
              "name": "hardwareSVGs13",
              "type": "address"
            },
            {
              "internalType": "contract IHardwareSVGs",
              "name": "hardwareSVGs14",
              "type": "address"
            },
            {
              "internalType": "contract IHardwareSVGs",
              "name": "hardwareSVGs15",
              "type": "address"
            },
            {
              "internalType": "contract IHardwareSVGs",
              "name": "hardwareSVGs16",
              "type": "address"
            },
            {
              "internalType": "contract IHardwareSVGs",
              "name": "hardwareSVGs17",
              "type": "address"
            },
            {
              "internalType": "contract IHardwareSVGs",
              "name": "hardwareSVGs18",
              "type": "address"
            },
            {
              "internalType": "contract IHardwareSVGs",
              "name": "hardwareSVGs19",
              "type": "address"
            },
            {
              "internalType": "contract IHardwareSVGs",
              "name": "hardwareSVGs20",
              "type": "address"
            },
            {
              "internalType": "contract IHardwareSVGs",
              "name": "hardwareSVGs21",
              "type": "address"
            },
            {
              "internalType": "contract IHardwareSVGs",
              "name": "hardwareSVGs22",
              "type": "address"
            },
            {
              "internalType": "contract IHardwareSVGs",
              "name": "hardwareSVGs23",
              "type": "address"
            },
            {
              "internalType": "contract IHardwareSVGs",
              "name": "hardwareSVGs24",
              "type": "address"
            },
            {
              "internalType": "contract IHardwareSVGs",
              "name": "hardwareSVGs25",
              "type": "address"
            },
            {
              "internalType": "contract IHardwareSVGs",
              "name": "hardwareSVGs26",
              "type": "address"
            },
            {
              "internalType": "contract IHardwareSVGs",
              "name": "hardwareSVGs27",
              "type": "address"
            },
            {
              "internalType": "contract IHardwareSVGs",
              "name": "hardwareSVGs28",
              "type": "address"
            },
            {
              "internalType": "contract IHardwareSVGs",
              "name": "hardwareSVGs29",
              "type": "address"
            },
            {
              "internalType": "contract IHardwareSVGs",
              "name": "hardwareSVGs30",
              "type": "address"
            },
            {
              "internalType": "contract IHardwareSVGs",
              "name": "hardwareSVGs31",
              "type": "address"
            },
            {
              "internalType": "contract IHardwareSVGs",
              "name": "hardwareSVGs32",
              "type": "address"
            },
            {
              "internalType": "contract IHardwareSVGs",
              "name": "hardwareSVGs33",
              "type": "address"
            },
            {
              "internalType": "contract IHardwareSVGs",
              "name": "hardwareSVGs34",
              "type": "address"
            },
            {
              "internalType": "contract IHardwareSVGs",
              "name": "hardwareSVGs35",
              "type": "address"
            },
            {
              "internalType": "contract IHardwareSVGs",
              "name": "hardwareSVGs36",
              "type": "address"
            },
            {
              "internalType": "contract IHardwareSVGs",
              "name": "hardwareSVGs37",
              "type": "address"
            },
            {
              "internalType": "contract IHardwareSVGs",
              "name": "hardwareSVGs38",
              "type": "address"
            }
          ],
          "internalType": "struct IHardwareGenerator.HardwareSVGs",
          "name": "svgs",
          "type": "tuple"
        }
      ],
      "stateMutability": "nonpayable",
      "type": "constructor"
    },
    {
      "inputs": [
        {
          "internalType": "uint16",
          "name": "hardware",
          "type": "uint16"
        }
      ],
      "name": "generateHardware",
      "outputs": [
        {
          "components": [
            {
              "internalType": "string",
              "name": "title",
              "type": "string"
            },
            {
              "internalType": "enum ICategories.HardwareCategories",
              "name": "hardwareType",
              "type": "uint8"
            },
            {
              "internalType": "string",
              "name": "svgString",
              "type": "string"
            }
          ],
          "internalType": "struct IHardwareSVGs.HardwareData",
          "name": "",
          "type": "tuple"
        }
      ],
      "stateMutability": "view",
      "type": "function"
    }
  ],
  "transactionHash": "0xf91b02fe377b054aa7d15f91ad1b5267b399d16c155947efc729d41f2e23f7d1",
  "args": [
    {
      "hardwareSVGs1": "0xa0d250a9b8af88496aaf0e699bf460d793cbc70a",
      "hardwareSVGs2": "0xa90b1f659a9f3a7f0153d761bc3983048f646957",
      "hardwareSVGs3": "0x88a730fae720f93e24a4c03693e17134084cbd18",
      "hardwareSVGs4": "0x874d288ccf6d670c073bbf9edee736bf8f93e984",
      "hardwareSVGs5": "0xcc84ec240922fb5922c3ab6f19b667ced5fa7d3a",
      "hardwareSVGs6": "0x769afe331bc9c4ad5d0ee905f5754434b946d82f",
      "hardwareSVGs7": "0xb54f961be0098c007eef24fcf1429b79451a923b",
      "hardwareSVGs8": "0xae278bd3ae025aa92f81aeb4675960d7fa0f8562",
      "hardwareSVGs9": "0x0a58eb15380cfcebbe273b3c10bb1027a7530e41",
      "hardwareSVGs10": "0x81be100b1a0db980cff614f5300eb9ff28a93dc3",
      "hardwareSVGs11": "0x6a9df3a0d82c0590b1e2cc75250563f7953d93bc",
      "hardwareSVGs12": "0xd84e52e09bf3ec041cb409f714752b4c2a696e6d",
      "hardwareSVGs13": "0xc0e1fc75c6af20659beb93fbed1de9bb2eaadc74",
      "hardwareSVGs14": "0xc7f91e74e5c7a9f444fd6fb0c2fac52201ca4030",
      "hardwareSVGs15": "0xca49afb97c53fecad21b3909cf4e9a7c77887e3b",
      "hardwareSVGs16": "0xccb440678d0f435cabd7d1b5865e8d00be7903ef",
      "hardwareSVGs17": "0xb2f657a0e9447293dbc7b2e03abbeef8d1384d48",
      "hardwareSVGs18": "0xf974982878ab652372c91ec4a185d7eba728b88c",
      "hardwareSVGs19": "0xf1df089f731b12f246bdaa372d8781ff4fffecae",
      "hardwareSVGs20": "0x5e31d8b704ebc204a2e20fe33e8403df97a21416",
      "hardwareSVGs21": "0x1777355165f8239f39f0531c03e4308e3ce2a821",
      "hardwareSVGs22": "0xbb4edfa1934bb0761b848090150acfe10797aabd",
      "hardwareSVGs23": "0xa0c028b946198f7269e4338f6898c3c457033b24",
      "hardwareSVGs24": "0x10ba6ffb37fd7396ff81a81c1a7391aa65efd2e7",
      "hardwareSVGs25": "0xc6c1f246e99bc95b21f296db5b446a013b5c10dc",
      "hardwareSVGs26": "0x2fc1c63079286db539edeff0f6cee1c1aa40460b",
      "hardwareSVGs27": "0xc2235f3992aedc94b833d16b382ffb25064e9a61",
      "hardwareSVGs28": "0xe272e61f3e68f1370a899894a402d7ba530cb9f9",
      "hardwareSVGs29": "0x26afdaf9bd1e7626c75f84c56cc99a1e71a00cd1",
      "hardwareSVGs30": "0x8482c9243fcdc0f106bb0283bfa3922890739333",
      "hardwareSVGs31": "0x81bcc6e7b950d852fcc2d3c42096d3b9e53d698e",
      "hardwareSVGs32": "0x2fbea676451f4f78f59dea1d71c74d63be0140a6",
      "hardwareSVGs33": "0x4d8e7b230715de3732b5b14a7239496d56d5a635",
      "hardwareSVGs34": "0x99a5c70c0d0821e84974c68308333bd2fccd4b1f",
      "hardwareSVGs35": "0x56da702ff81c80c8905dc3a9b62e1a2ff2237fed",
      "hardwareSVGs36": "0x1b212aa34a12682e18f503af7692c9951bc9124d",
      "hardwareSVGs37": "0x74ff871d68ffd552f303a725fc109dbfa5b6b394",
      "hardwareSVGs38": "0x3ea6a024918d0e77d0f0752d849bed7e94c2653d"
    }
  ],
  "solcInputHash": "53fca273d67f718f5cb0758c3ff9defc",
  "bytecode": "0x6105406040523480156200001257600080fd5b506040516200171f3803806200171f833981016040819052620000359162000254565b80516001600160a01b0390811660809081526020830151821660a09081526040840151831660c09081526060850151841660e09081529285015184166101009081529185015184166101209081529085015184166101409081529285015184166101609081529185015184166101809081529085015184166101a09081529285015184166101c09081529185015184166101e09081529085015184166102009081529285015184166102209081529185015184166102409081529085015184166102609081529285015184166102809081529185015184166102a09081529085015184166102c09081529285015184166102e09081529185015184166103009081529085015184166103209081529285015184166103409081529185015184166103609081529085015184166103809081529285015184166103a09081529185015184166103c09081529085015184166103e09081529285015184166104009081529185015184166104209081529085015184166104409081529285015184166104609081529185015184166104809081529085015184166104a09081529285015184166104c0529084015183166104e05283015182166105005290910151166105205262000563565b6040516104c081016001600160401b03811182821017156200023157634e487b7160e01b600052604160045260246000fd5b60405290565b80516001600160a01b03811681146200024f57600080fd5b919050565b60006104c082840312156200026857600080fd5b62000272620001ff565b6200027d8362000237565b81526200028d6020840162000237565b6020820152620002a06040840162000237565b6040820152620002b36060840162000237565b6060820152620002c66080840162000237565b6080820152620002d960a0840162000237565b60a0820152620002ec60c0840162000237565b60c0820152620002ff60e0840162000237565b60e08201526101006200031481850162000237565b908201526101206200032884820162000237565b908201526101406200033c84820162000237565b908201526101606200035084820162000237565b908201526101806200036484820162000237565b908201526101a06200037884820162000237565b908201526101c06200038c84820162000237565b908201526101e0620003a084820162000237565b90820152610200620003b484820162000237565b90820152610220620003c884820162000237565b90820152610240620003dc84820162000237565b90820152610260620003f084820162000237565b908201526102806200040484820162000237565b908201526102a06200041884820162000237565b908201526102c06200042c84820162000237565b908201526102e06200044084820162000237565b908201526103006200045484820162000237565b908201526103206200046884820162000237565b908201526103406200047c84820162000237565b908201526103606200049084820162000237565b90820152610380620004a484820162000237565b908201526103a0620004b884820162000237565b908201526103c0620004cc84820162000237565b908201526103e0620004e084820162000237565b90820152610400620004f484820162000237565b908201526104206200050884820162000237565b908201526104406200051c84820162000237565b908201526104606200053084820162000237565b908201526104806200054484820162000237565b908201526104a06200055884820162000237565b908201529392505050565b60805160a05160c05160e05161010051610120516101405161016051610180516101a0516101c0516101e05161020051610220516102405161026051610280516102a0516102c0516102e05161030051610320516103405161036051610380516103a0516103c0516103e05161040051610420516104405161046051610480516104a0516104c0516104e051610500516105205161100f62000710600039600061085a01526000610824015260006107ee015260006107b8015260006107820152600061074c01526000610716015260006106e0015260006106aa015260006106740152600061063e01526000610608015260006105d20152600061059c0152600061056601526000610530015260006104fa015260006104c40152600061048e0152600061045801526000610422015260006103ec015260006103b6015260006103800152600061034a01526000610314015260006102de015260006102a8015260006102720152600061023c01526000610206015260006101d00152600061019a015260006101640152600061012e0152600060f80152600060c2015260006086015261100f6000f3fe608060405234801561001057600080fd5b506004361061002b5760003560e01c8063e6e2e97c14610030575b600080fd5b61004361003e366004610b79565b610059565b6040516100509190610c1e565b60405180910390f35b6040805160608082018352808252600060208301529181019190915260058261ffff16116100b1576100ab7f0000000000000000000000000000000000000000000000000000000000000000836108e5565b92915050565b60098261ffff16116100e7576100ab7f0000000000000000000000000000000000000000000000000000000000000000836108e5565b600e8261ffff161161011d576100ab7f0000000000000000000000000000000000000000000000000000000000000000836108e5565b60128261ffff1611610153576100ab7f0000000000000000000000000000000000000000000000000000000000000000836108e5565b60168261ffff1611610189576100ab7f0000000000000000000000000000000000000000000000000000000000000000836108e5565b60198261ffff16116101bf576100ab7f0000000000000000000000000000000000000000000000000000000000000000836108e5565b601d8261ffff16116101f5576100ab7f0000000000000000000000000000000000000000000000000000000000000000836108e5565b60218261ffff161161022b576100ab7f0000000000000000000000000000000000000000000000000000000000000000836108e5565b60258261ffff1611610261576100ab7f0000000000000000000000000000000000000000000000000000000000000000836108e5565b60298261ffff1611610297576100ab7f0000000000000000000000000000000000000000000000000000000000000000836108e5565b602c8261ffff16116102cd576100ab7f0000000000000000000000000000000000000000000000000000000000000000836108e5565b602f8261ffff1611610303576100ab7f0000000000000000000000000000000000000000000000000000000000000000836108e5565b60338261ffff1611610339576100ab7f0000000000000000000000000000000000000000000000000000000000000000836108e5565b60388261ffff161161036f576100ab7f0000000000000000000000000000000000000000000000000000000000000000836108e5565b603c8261ffff16116103a5576100ab7f0000000000000000000000000000000000000000000000000000000000000000836108e5565b603f8261ffff16116103db576100ab7f0000000000000000000000000000000000000000000000000000000000000000836108e5565b60448261ffff1611610411576100ab7f0000000000000000000000000000000000000000000000000000000000000000836108e5565b60488261ffff1611610447576100ab7f0000000000000000000000000000000000000000000000000000000000000000836108e5565b604b8261ffff161161047d576100ab7f0000000000000000000000000000000000000000000000000000000000000000836108e5565b604d8261ffff16116104b3576100ab7f0000000000000000000000000000000000000000000000000000000000000000836108e5565b604f8261ffff16116104e9576100ab7f0000000000000000000000000000000000000000000000000000000000000000836108e5565b60528261ffff161161051f576100ab7f0000000000000000000000000000000000000000000000000000000000000000836108e5565b60548261ffff1611610555576100ab7f0000000000000000000000000000000000000000000000000000000000000000836108e5565b60568261ffff161161058b576100ab7f0000000000000000000000000000000000000000000000000000000000000000836108e5565b60588261ffff16116105c1576100ab7f0000000000000000000000000000000000000000000000000000000000000000836108e5565b605a8261ffff16116105f7576100ab7f0000000000000000000000000000000000000000000000000000000000000000836108e5565b605c8261ffff161161062d576100ab7f0000000000000000000000000000000000000000000000000000000000000000836108e5565b605f8261ffff1611610663576100ab7f0000000000000000000000000000000000000000000000000000000000000000836108e5565b60618261ffff1611610699576100ab7f0000000000000000000000000000000000000000000000000000000000000000836108e5565b60638261ffff16116106cf576100ab7f0000000000000000000000000000000000000000000000000000000000000000836108e5565b60658261ffff1611610705576100ab7f0000000000000000000000000000000000000000000000000000000000000000836108e5565b60678261ffff161161073b576100ab7f0000000000000000000000000000000000000000000000000000000000000000836108e5565b606a8261ffff1611610771576100ab7f0000000000000000000000000000000000000000000000000000000000000000836108e5565b606f8261ffff16116107a7576100ab7f0000000000000000000000000000000000000000000000000000000000000000836108e5565b60718261ffff16116107dd576100ab7f0000000000000000000000000000000000000000000000000000000000000000836108e5565b60738261ffff1611610813576100ab7f0000000000000000000000000000000000000000000000000000000000000000836108e5565b60758261ffff1611610849576100ab7f0000000000000000000000000000000000000000000000000000000000000000836108e5565b60788261ffff161161087f576100ab7f0000000000000000000000000000000000000000000000000000000000000000836108e5565b6040517f08c379a000000000000000000000000000000000000000000000000000000000815260206004820152601a60248201527f696e76616c69642068617264776172652073656c656374696f6e000000000000604482015260640160405180910390fd5b6040805160608082018352808252600060208301819052928201529061090e61ffff8416610a3f565b60405160200161091e9190610cc1565b604080517fffffffffffffffffffffffffffffffffffffffffffffffffffffffffffffffe081840301815282825280516020808301919091206004855260248501845290840180517bffffffffffffffffffffffffffffffffffffffffffffffffffffffff167fffffffff00000000000000000000000000000000000000000000000000000000909216919091179052905190925060009160609173ffffffffffffffffffffffffffffffffffffffff8816916109da91610d2d565b600060405180830381855afa9150503d8060008114610a15576040519150601f19603f3d011682016040523d82523d6000602084013e610a1a565b606091505b5080519193509150610a359082016020908101908301610e3d565b9695505050505050565b606081610a7f57505060408051808201909152600181527f3000000000000000000000000000000000000000000000000000000000000000602082015290565b8160005b8115610aa95780610a9381610f14565b9150610aa29050600a83610f7c565b9150610a83565b60008167ffffffffffffffff811115610ac457610ac4610d49565b6040519080825280601f01601f191660200182016040528015610aee576020820181803683370190505b5090505b8415610b7157610b03600183610f90565b9150610b10600a86610fa7565b610b1b906030610fbb565b60f81b818381518110610b3057610b30610fd3565b60200101907effffffffffffffffffffffffffffffffffffffffffffffffffffffffffffff1916908160001a905350610b6a600a86610f7c565b9450610af2565b949350505050565b600060208284031215610b8b57600080fd5b813561ffff81168114610b9d57600080fd5b9392505050565b60005b83811015610bbf578181015183820152602001610ba7565b83811115610bce576000848401525b50505050565b60008151808452610bec816020860160208601610ba4565b601f017fffffffffffffffffffffffffffffffffffffffffffffffffffffffffffffffe0169290920160200192915050565b602081526000825160606020840152610c3a6080840182610bd4565b9050602084015160028110610c78577f4e487b7100000000000000000000000000000000000000000000000000000000600052602160045260246000fd5b8060408501525060408401517fffffffffffffffffffffffffffffffffffffffffffffffffffffffffffffffe0848303016060850152610cb88282610bd4565b95945050505050565b7f68617264776172655f0000000000000000000000000000000000000000000000815260008251610cf9816009850160208701610ba4565b7f28290000000000000000000000000000000000000000000000000000000000006009939091019283015250600b01919050565b60008251610d3f818460208701610ba4565b9190910192915050565b7f4e487b7100000000000000000000000000000000000000000000000000000000600052604160045260246000fd5b6040516060810167ffffffffffffffff81118282101715610d9b57610d9b610d49565b60405290565b600082601f830112610db257600080fd5b815167ffffffffffffffff80821115610dcd57610dcd610d49565b604051601f83017fffffffffffffffffffffffffffffffffffffffffffffffffffffffffffffffe0908116603f01168101908282118183101715610e1357610e13610d49565b81604052838152866020858801011115610e2c57600080fd5b610a35846020830160208901610ba4565b600060208284031215610e4f57600080fd5b815167ffffffffffffffff80821115610e6757600080fd5b9083019060608286031215610e7b57600080fd5b610e83610d78565b825182811115610e9257600080fd5b610e9e87828601610da1565b825250602083015160028110610eb357600080fd5b6020820152604083015182811115610eca57600080fd5b610ed687828601610da1565b60408301525095945050505050565b7f4e487b7100000000000000000000000000000000000000000000000000000000600052601160045260246000fd5b60007fffffffffffffffffffffffffffffffffffffffffffffffffffffffffffffffff821415610f4657610f46610ee5565b5060010190565b7f4e487b7100000000000000000000000000000000000000000000000000000000600052601260045260246000fd5b600082610f8b57610f8b610f4d565b500490565b600082821015610fa257610fa2610ee5565b500390565b600082610fb657610fb6610f4d565b500690565b60008219821115610fce57610fce610ee5565b500190565b7f4e487b7100000000000000000000000000000000000000000000000000000000600052603260045260246000fdfea164736f6c6343000809000a"
}