{
  "address": "0x92be217cb85e1560d49840c0f39e1d19f2e1235c",
  "abi": [
    {
      "inputs": [
        {
          "components": [
            {
              "internalType": "contract IFrameSVGs",
              "name": "frameSVGs1",
              "type": "address"
            },
            {
              "internalType": "contract IFrameSVGs",
              "name": "frameSVGs2",
              "type": "address"
            }
          ],
          "internalType": "struct IFrameGenerator.FrameSVGs",
          "name": "svgs",
          "type": "tuple"
        }
      ],
      "stateMutability": "nonpayable",
      "type": "constructor"
    },
    {
      "inputs": [
        {
          "internalType": "uint16",
          "name": "frame",
          "type": "uint16"
        }
      ],
      "name": "generateFrame",
      "outputs": [
        {
          "components": [
            {
              "internalType": "string",
              "name": "title",
              "type": "string"
            },
            {
              "internalType": "uint256",
              "name": "fee",
              "type": "uint256"
            },
            {
              "internalType": "string",
              "name": "svgString",
              "type": "string"
            }
          ],
          "internalType": "struct IFrameSVGs.FrameData",
          "name": "",
          "type": "tuple"
        }
      ],
      "stateMutability": "view",
      "type": "function"
    }
  ],
  "transactionHash": "0xc9b8ea9f38aeed7b9f8f1a3c4d0cb9cfc2fbbf8224b99fbccc6fb89e190b7217",
  "args": [
    {
      "frameSVGs1": "0x1d0a7b2fa9a7e92cab64b0d47a1bdc827f30dfe3",
      "frameSVGs2": "0xa1b1264d194e1663e19a3c65a96c0c005572346b"
    }
  ],
  "solcInputHash": "f13209de5f6765da42f325a73fb27d59",
  "bytecode": "0x60c060405234801561001057600080fd5b50604051610ac5380380610ac58339818101604052810190610032919061010f565b806000015173ffffffffffffffffffffffffffffffffffffffff1660808173ffffffffffffffffffffffffffffffffffffffff1660601b81525050806020015173ffffffffffffffffffffffffffffffffffffffff1660a08173ffffffffffffffffffffffffffffffffffffffff1660601b81525050506101c6565b6000815190506100bd816101af565b92915050565b6000604082840312156100d557600080fd5b6100df6040610138565b905060006100ef848285016100ae565b6000830152506020610103848285016100ae565b60208301525092915050565b60006040828403121561012157600080fd5b600061012f848285016100c3565b91505092915050565b6000604051905081810181811067ffffffffffffffff8211171561015f5761015e6101ad565b5b8060405250919050565b60006101748261018d565b9050919050565b600061018682610169565b9050919050565b600073ffffffffffffffffffffffffffffffffffffffff82169050919050565bfe5b6101b88161017b565b81146101c357600080fd5b50565b60805160601c60a05160601c6108d86101ed6000398060b6525080607952506108d86000f3fe608060405234801561001057600080fd5b506004361061002b5760003560e01c8063d0b7314f14610030575b600080fd5b61004a60048036038101906100459190610520565b610060565b604051610057919061076e565b60405180910390f35b61006861039c565b60038261ffff16116100a55761009e7f000000000000000000000000000000000000000000000000000000000000000083610122565b905061011d565b60058261ffff16116100e2576100db7f000000000000000000000000000000000000000000000000000000000000000083610122565b905061011d565b6040517f08c379a00000000000000000000000000000000000000000000000000000000081526004016101149061074e565b60405180910390fd5b919050565b61012a61039c565b60006101398361ffff16610255565b6040516020016101499190610721565b6040516020818303038152906040529050600060608573ffffffffffffffffffffffffffffffffffffffff168380519060200120604051602401604051602081830303815290604052907bffffffffffffffffffffffffffffffffffffffffffffffffffffffff19166020820180517bffffffffffffffffffffffffffffffffffffffffffffffffffffffff83818316178352505050506040516101ed919061070a565b600060405180830381855afa9150503d8060008114610228576040519150601f19603f3d011682016040523d82523d6000602084013e61022d565b606091505b5080925081935050508080602001905181019061024a91906104df565b935050505092915050565b6060600082141561029d576040518060400160405280600181526020017f30000000000000000000000000000000000000000000000000000000000000008152509050610397565b600082905060005b600082146102c7578080600101915050600a82816102bf57fe5b0491506102a5565b60008167ffffffffffffffff811180156102e057600080fd5b506040519080825280601f01601f1916602001820160405280156103135781602001600182028036833780820191505090505b50905060006001830390508593505b6000841461038f57600a848161033457fe5b0660300160f81b8282806001900393508151811061034e57fe5b60200101907effffffffffffffffffffffffffffffffffffffffffffffffffffffffffffff1916908160001a905350600a848161038757fe5b049350610322565b819450505050505b919050565b60405180606001604052806060815260200160008152602001606081525090565b60006103d06103cb846107c1565b610790565b9050828152602081018484840111156103e857600080fd5b6103f3848285610857565b509392505050565b600082601f83011261040c57600080fd5b815161041c8482602086016103bd565b91505092915050565b60006060828403121561043757600080fd5b6104416060610790565b9050600082015167ffffffffffffffff81111561045d57600080fd5b610469848285016103fb565b600083015250602061047d848285016104ca565b602083015250604082015167ffffffffffffffff81111561049d57600080fd5b6104a9848285016103fb565b60408301525092915050565b6000813590506104c48161089d565b92915050565b6000815190506104d9816108b4565b92915050565b6000602082840312156104f157600080fd5b600082015167ffffffffffffffff81111561050b57600080fd5b61051784828501610425565b91505092915050565b60006020828403121561053257600080fd5b6000610540848285016104b5565b91505092915050565b6000610554826107f1565b61055e8185610807565b935061056e818560208601610857565b80840191505092915050565b6000610585826107fc565b61058f8185610812565b935061059f818560208601610857565b6105a88161088c565b840191505092915050565b60006105be826107fc565b6105c88185610834565b93506105d8818560208601610857565b80840191505092915050565b60006105f1601783610823565b91507f696e76616c6964206672616d652073656c656374696f6e0000000000000000006000830152602082019050919050565b6000610631600283610834565b91507f28290000000000000000000000000000000000000000000000000000000000006000830152600282019050919050565b6000610671600683610834565b91507f6672616d655f00000000000000000000000000000000000000000000000000006000830152600682019050919050565b600060608301600083015184820360008601526106c1828261057a565b91505060208301516106d660208601826106fb565b50604083015184820360408601526106ee828261057a565b9150508091505092915050565b6107048161084d565b82525050565b60006107168284610549565b915081905092915050565b600061072c82610664565b915061073882846105b3565b915061074382610624565b915081905092915050565b60006020820190508181036000830152610767816105e4565b9050919050565b6000602082019050818103600083015261078881846106a4565b905092915050565b6000604051905081810181811067ffffffffffffffff821117156107b7576107b661088a565b5b8060405250919050565b600067ffffffffffffffff8211156107dc576107db61088a565b5b601f19601f8301169050602081019050919050565b600081519050919050565b600081519050919050565b600081905092915050565b600082825260208201905092915050565b600082825260208201905092915050565b600081905092915050565b600061ffff82169050919050565b6000819050919050565b60005b8381101561087557808201518184015260208101905061085a565b83811115610884576000848401525b50505050565bfe5b6000601f19601f8301169050919050565b6108a68161083f565b81146108b157600080fd5b50565b6108bd8161084d565b81146108c857600080fd5b5056fea164736f6c6343000706000a",
  "devdoc": {
    "details": "Generate Shield SVG",
    "kind": "dev",
    "methods": {},
    "version": 1
  },
  "userdoc": {
    "kind": "user",
    "methods": {},
    "version": 1
  },
  "storageLayout": {
    "storage": [],
    "types": null
  }
}