{
  "address": "0xC40ab83661395b1e7F75840752BDAeCcf468D54D",
  "abi": [
    {
      "inputs": [
        {
          "internalType": "contract IFieldGenerator",
          "name": "_fieldGenerator",
          "type": "address"
        },
        {
          "internalType": "contract IHardwareGenerator",
          "name": "_hardwareGenerator",
          "type": "address"
        },
        {
          "internalType": "contract IFrameGenerator",
          "name": "_frameGenerator",
          "type": "address"
        },
        {
          "internalType": "contract IBuildPassSVGs",
          "name": "_buildPassSVGGenerator",
          "type": "address"
        }
      ],
      "stateMutability": "nonpayable",
      "type": "constructor"
    },
    {
      "inputs": [],
      "name": "buildPassSVGGenerator",
      "outputs": [
        {
          "internalType": "contract IBuildPassSVGs",
          "name": "",
          "type": "address"
        }
      ],
      "stateMutability": "view",
      "type": "function"
    },
    {
      "inputs": [],
      "name": "fieldGenerator",
      "outputs": [
        {
          "internalType": "contract IFieldGenerator",
          "name": "",
          "type": "address"
        }
      ],
      "stateMutability": "view",
      "type": "function"
    },
    {
      "inputs": [],
      "name": "frameGenerator",
      "outputs": [
        {
          "internalType": "contract IFrameGenerator",
          "name": "",
          "type": "address"
        }
      ],
      "stateMutability": "view",
      "type": "function"
    },
    {
      "inputs": [
        {
          "internalType": "enum IShields.MintPass",
          "name": "mintPass",
          "type": "uint8"
        }
      ],
      "name": "generateBuildPassURI",
      "outputs": [
        {
          "internalType": "string",
          "name": "",
          "type": "string"
        }
      ],
      "stateMutability": "view",
      "type": "function"
    },
    {
      "inputs": [
        {
          "components": [
            {
              "internalType": "bool",
              "name": "built",
              "type": "bool"
            },
            {
              "internalType": "uint16",
              "name": "field",
              "type": "uint16"
            },
            {
              "internalType": "uint16",
              "name": "hardware",
              "type": "uint16"
            },
            {
              "internalType": "uint16",
              "name": "frame",
              "type": "uint16"
            },
            {
              "internalType": "enum IShields.MintPass",
              "name": "mintPass",
              "type": "uint8"
            },
            {
              "internalType": "uint24[4]",
              "name": "colors",
              "type": "uint24[4]"
            }
          ],
          "internalType": "struct IShields.Shield",
          "name": "shield",
          "type": "tuple"
        }
      ],
      "name": "generateShieldURI",
      "outputs": [
        {
          "internalType": "string",
          "name": "",
          "type": "string"
        }
      ],
      "stateMutability": "view",
      "type": "function"
    },
    {
      "inputs": [],
      "name": "hardwareGenerator",
      "outputs": [
        {
          "internalType": "contract IHardwareGenerator",
          "name": "",
          "type": "address"
        }
      ],
      "stateMutability": "view",
      "type": "function"
    }
  ],
  "transactionHash": "0x34472463e54a590c8426fa112c84b45b78e42a019b6d9ec25745e42bf3cd76e7",
  "args": [
    "0x4A840D460f327b70796D599D6B97609c00cA334c",
    "0xDb15c4D2bfbC6F71B0FDe4b980D88e129C1CBd25",
    "0x92be217cb85e1560d49840c0f39e1d19f2e1235c",
    "0x6b9d81f6F743fe60E20fC1269c208E844a375cFb"
  ],
  "solcInputHash": "f13209de5f6765da42f325a73fb27d59",
  "bytecode": "0x6101006040523480156200001257600080fd5b5060405162002bdd38038062002bdd83398181016040528101906200003891906200017a565b8373ffffffffffffffffffffffffffffffffffffffff1660808173ffffffffffffffffffffffffffffffffffffffff1660601b815250508273ffffffffffffffffffffffffffffffffffffffff1660a08173ffffffffffffffffffffffffffffffffffffffff1660601b815250508173ffffffffffffffffffffffffffffffffffffffff1660c08173ffffffffffffffffffffffffffffffffffffffff1660601b815250508073ffffffffffffffffffffffffffffffffffffffff1660e08173ffffffffffffffffffffffffffffffffffffffff1660601b8152505050505050620002d2565b6000815190506200012f816200026a565b92915050565b600081519050620001468162000284565b92915050565b6000815190506200015d816200029e565b92915050565b6000815190506200017481620002b8565b92915050565b600080600080608085870312156200019157600080fd5b6000620001a18782880162000135565b9450506020620001b48782880162000163565b9350506040620001c7878288016200014c565b9250506060620001da878288016200011e565b91505092959194509250565b6000620001f3826200024a565b9050919050565b60006200020782620001e6565b9050919050565b60006200021b82620001e6565b9050919050565b60006200022f82620001e6565b9050919050565b60006200024382620001e6565b9050919050565b600073ffffffffffffffffffffffffffffffffffffffff82169050919050565b6200027581620001fa565b81146200028157600080fd5b50565b6200028f816200020e565b81146200029b57600080fd5b50565b620002a98162000222565b8114620002b557600080fd5b50565b620002c38162000236565b8114620002cf57600080fd5b50565b60805160601c60a05160601c60c05160601c60e05160601c612897620003466000398061026b528061065d52508061016552806104e0525080610189528061042a525080610141528061036e52806109005280610a715280610c045280610d075280610efd528061105452506128976000f3fe608060405234801561001057600080fd5b50600436106100625760003560e01c80631b740a33146100675780632900a9aa14610085578063291c881d146100a357806336da1a64146100c15780638ee1d84c146100f1578063c691f41e14610121575b600080fd5b61006f61013f565b60405161007c9190612454565b60405180910390f35b61008d610163565b60405161009a919061246f565b60405180910390f35b6100ab610187565b6040516100b8919061248a565b60405180910390f35b6100db60048036038101906100d69190611644565b6101ab565b6040516100e891906124c0565b60405180910390f35b61010b60048036038101906101069190611771565b610368565b60405161011891906124c0565b60405180910390f35b61012961065b565b6040516101369190612439565b60405180910390f35b7f000000000000000000000000000000000000000000000000000000000000000081565b7f000000000000000000000000000000000000000000000000000000000000000081565b7f000000000000000000000000000000000000000000000000000000000000000081565b606080600060018111156101bb57fe5b8360018111156101c757fe5b141561020a576040518060400160405280600581526020017f4d616b65720000000000000000000000000000000000000000000000000000008152509050610262565b60018081111561021657fe5b83600181111561022257fe5b1415610261576040518060400160405280600881526020017f5374616e6461726400000000000000000000000000000000000000000000000081525090505b5b6103418161031c7f000000000000000000000000000000000000000000000000000000000000000073ffffffffffffffffffffffffffffffffffffffff1663e3142b83876040518263ffffffff1660e01b81526004016102c291906124a5565b60006040518083038186803b1580156102da57600080fd5b505afa1580156102ee573d6000803e3d6000fd5b505050506040513d6000823e3d601f19601f82011682018060405250810190610317919061166d565b61067f565b60405160200161032d9291906121a0565b60405160208183030381529060405261067f565b6040516020016103519190612417565b604051602081830303815290604052915050919050565b606060007f000000000000000000000000000000000000000000000000000000000000000073ffffffffffffffffffffffffffffffffffffffff1663ccf27bea84602001518560a001516040518363ffffffff1660e01b81526004016103cf9291906124fd565b60006040518083038186803b1580156103e757600080fd5b505afa1580156103fb573d6000803e3d6000fd5b505050506040513d6000823e3d601f19601f8201168201806040525081019061042491906116ae565b905060007f000000000000000000000000000000000000000000000000000000000000000073ffffffffffffffffffffffffffffffffffffffff1663e6e2e97c85604001516040518263ffffffff1660e01b815260040161048591906124e2565b60006040518083038186803b15801561049d57600080fd5b505afa1580156104b1573d6000803e3d6000fd5b505050506040513d6000823e3d601f19601f820116820180604052508101906104da9190611730565b905060007f000000000000000000000000000000000000000000000000000000000000000073ffffffffffffffffffffffffffffffffffffffff1663d0b7314f86606001516040518263ffffffff1660e01b815260040161053b91906124e2565b60006040518083038186803b15801561055357600080fd5b505afa158015610567573d6000803e3d6000fd5b505050506040513d6000823e3d601f19601f8201168201806040525081019061059091906116ef565b905060006105b08460000151846000015184600001518960a001516107e5565b905060006040518060600160405280603a8152602001612851603a9139905060006105e18686868b60a00151610861565b905061062f83836106076106028a604001518a604001518a604001516108cb565b61067f565b8460405160200161061b949392919061221c565b60405160208183030381529060405261067f565b60405160200161063f9190612417565b6040516020818303038152906040529650505050505050919050565b7f000000000000000000000000000000000000000000000000000000000000000081565b60606000825114156106a2576040518060200160405280600081525090506107e0565b6000604051806060016040528060408152602001612811604091399050600060036002855101816106cf57fe5b04600402905060006020820167ffffffffffffffff811180156106f157600080fd5b506040519080825280601f01601f1916602001820160405280156107245781602001600182028036833780820191505090505b509050818152600183018586518101602084015b8183101561079f576003830192508251603f8160121c1685015160f81b8252600182019150603f81600c1c1685015160f81b8252600182019150603f8160061c1685015160f81b8252600182019150603f811685015160f81b825260018201915050610738565b6003895106600181146107b957600281146107c9576107d4565b613d3d60f01b60028303526107d4565b603d60f81b60018303525b50505050508093505050505b919050565b606060006040518060200160405280600081525090506000845111156108285783604051602001610816919061217e565b60405160208183030381529060405290505b8085610833856108fa565b8860405160200161084794939291906120e4565b604051602081830303815290604052915050949350505050565b60608460000151846000015161087a8760200151610e12565b6108878760200151610e12565b6108948760000151610eae565b61089d87610ef9565b6040516020016108b29695949392919061234c565b6040516020818303038152906040529050949350505050565b60608383836040516020016108e2939291906123d0565b60405160208183030381529060405290509392505050565b606060007f000000000000000000000000000000000000000000000000000000000000000073ffffffffffffffffffffffffffffffffffffffff1663c4b9c9478460006004811061094757fe5b60200201516040518263ffffffff1660e01b81526004016109689190612526565b60006040518083038186803b15801561098057600080fd5b505afa158015610994573d6000803e3d6000fd5b505050506040513d6000823e3d601f19601f820116820180604052508101906109bd919061166d565b90506000836001600481106109ce57fe5b602002015162ffffff161115610b5257806000846002600481106109ee57fe5b602002015162ffffff1611610a38576040518060400160405280600581526020017f20616e6420000000000000000000000000000000000000000000000000000000815250610a6f565b6040518060400160405280600181526020017f20000000000000000000000000000000000000000000000000000000000000008152505b7f000000000000000000000000000000000000000000000000000000000000000073ffffffffffffffffffffffffffffffffffffffff1663c4b9c94786600160048110610ab857fe5b60200201516040518263ffffffff1660e01b8152600401610ad99190612526565b60006040518083038186803b158015610af157600080fd5b505afa158015610b05573d6000803e3d6000fd5b505050506040513d6000823e3d601f19601f82011682018060405250810190610b2e919061166d565b604051602001610b40939291906120b3565b60405160208183030381529060405290505b600083600260048110610b6157fe5b602002015162ffffff161115610ce55780600084600360048110610b8157fe5b602002015162ffffff1611610bcb576040518060400160405280600581526020017f20616e6420000000000000000000000000000000000000000000000000000000815250610c02565b6040518060400160405280600181526020017f20000000000000000000000000000000000000000000000000000000000000008152505b7f000000000000000000000000000000000000000000000000000000000000000073ffffffffffffffffffffffffffffffffffffffff1663c4b9c94786600260048110610c4b57fe5b60200201516040518263ffffffff1660e01b8152600401610c6c9190612526565b60006040518083038186803b158015610c8457600080fd5b505afa158015610c98573d6000803e3d6000fd5b505050506040513d6000823e3d601f19601f82011682018060405250810190610cc1919061166d565b604051602001610cd3939291906120b3565b60405160208183030381529060405290505b600083600360048110610cf457fe5b602002015162ffffff161115610de757807f000000000000000000000000000000000000000000000000000000000000000073ffffffffffffffffffffffffffffffffffffffff1663c4b9c94785600360048110610d4e57fe5b60200201516040518263ffffffff1660e01b8152600401610d6f9190612526565b60006040518083038186803b158015610d8757600080fd5b505afa158015610d9b573d6000803e3d6000fd5b505050506040513d6000823e3d601f19601f82011682018060405250810190610dc4919061166d565b604051602001610dd592919061212d565b60405160208183030381529060405290505b80604051602001610df8919061215c565b604051602081830303815290604052905080915050919050565b606060006001811115610e2157fe5b826001811115610e2d57fe5b1415610e70576040518060400160405280600681526020017f4d797468696300000000000000000000000000000000000000000000000000008152509050610ea9565b6040518060400160405280600881526020017f486572616c64696300000000000000000000000000000000000000000000000081525090505b919050565b6060600082511115610ee15781604051602001610ecb919061232a565b6040516020818303038152906040529050610ef4565b6040518060200160405280600081525090505b919050565b60607f000000000000000000000000000000000000000000000000000000000000000073ffffffffffffffffffffffffffffffffffffffff1663c4b9c94783600060048110610f4457fe5b60200201516040518263ffffffff1660e01b8152600401610f659190612526565b60006040518083038186803b158015610f7d57600080fd5b505afa158015610f91573d6000803e3d6000fd5b505050506040513d6000823e3d601f19601f82011682018060405250810190610fba919061166d565b610fd683600160048110610fca57fe5b60200201516002611037565b610ff284600260048110610fe657fe5b60200201516003611037565b61100e8560036004811061100257fe5b60200201516004611037565b604051602001611021949392919061229c565b6040516020818303038152906040529050919050565b606060008362ffffff1614611127576110528260ff16611140565b7f000000000000000000000000000000000000000000000000000000000000000073ffffffffffffffffffffffffffffffffffffffff1663c4b9c947856040518263ffffffff1660e01b81526004016110ab9190612526565b60006040518083038186803b1580156110c357600080fd5b505afa1580156110d7573d6000803e3d6000fd5b505050506040513d6000823e3d601f19601f82011682018060405250810190611100919061166d565b6040516020016111119291906122f0565b604051602081830303815290604052905061113a565b6040518060200160405280600081525090505b92915050565b60606000821415611188576040518060400160405280600181526020017f30000000000000000000000000000000000000000000000000000000000000008152509050611282565b600082905060005b600082146111b2578080600101915050600a82816111aa57fe5b049150611190565b60008167ffffffffffffffff811180156111cb57600080fd5b506040519080825280601f01601f1916602001820160405280156111fe5781602001600182028036833780820191505090505b50905060006001830390508593505b6000841461127a57600a848161121f57fe5b0660300160f81b8282806001900393508151811061123957fe5b60200101907effffffffffffffffffffffffffffffffffffffffffffffffffffffffffffff1916908160001a905350600a848161127257fe5b04935061120d565b819450505050505b919050565b600061129a61129584612572565b612541565b905080828560208602820111156112b057600080fd5b60005b858110156112e057816112c6888261161a565b8452602084019350602083019250506001810190506112b3565b5050509392505050565b60006112fd6112f884612598565b612541565b90508281526020810184848401111561131557600080fd5b61132084828561273a565b509392505050565b600082601f83011261133957600080fd5b6004611346848285611287565b91505092915050565b60008135905061135e81612794565b92915050565b600081519050611373816127ab565b92915050565b600081359050611388816127bb565b92915050565b600082601f83011261139f57600080fd5b81516113af8482602086016112ea565b91505092915050565b6000606082840312156113ca57600080fd5b6113d46060612541565b9050600082015167ffffffffffffffff8111156113f057600080fd5b6113fc8482850161138e565b600083015250602061141084828501611364565b602083015250604082015167ffffffffffffffff81111561143057600080fd5b61143c8482850161138e565b60408301525092915050565b60006060828403121561145a57600080fd5b6114646060612541565b9050600082015167ffffffffffffffff81111561148057600080fd5b61148c8482850161138e565b60008301525060206114a08482850161162f565b602083015250604082015167ffffffffffffffff8111156114c057600080fd5b6114cc8482850161138e565b60408301525092915050565b6000606082840312156114ea57600080fd5b6114f46060612541565b9050600082015167ffffffffffffffff81111561151057600080fd5b61151c8482850161138e565b600083015250602061153084828501611364565b602083015250604082015167ffffffffffffffff81111561155057600080fd5b61155c8482850161138e565b60408301525092915050565b6000610120828403121561157b57600080fd5b61158560c0612541565b905060006115958482850161134f565b60008301525060206115a984828501611605565b60208301525060406115bd84828501611605565b60408301525060606115d184828501611605565b60608301525060806115e584828501611379565b60808301525060a06115f984828501611328565b60a08301525092915050565b600081359050611614816127cb565b92915050565b600081359050611629816127e2565b92915050565b60008151905061163e816127f9565b92915050565b60006020828403121561165657600080fd5b600061166484828501611379565b91505092915050565b60006020828403121561167f57600080fd5b600082015167ffffffffffffffff81111561169957600080fd5b6116a58482850161138e565b91505092915050565b6000602082840312156116c057600080fd5b600082015167ffffffffffffffff8111156116da57600080fd5b6116e6848285016113b8565b91505092915050565b60006020828403121561170157600080fd5b600082015167ffffffffffffffff81111561171b57600080fd5b61172784828501611448565b91505092915050565b60006020828403121561174257600080fd5b600082015167ffffffffffffffff81111561175c57600080fd5b611768848285016114d8565b91505092915050565b6000610120828403121561178457600080fd5b600061179284828501611568565b91505092915050565b60006117a78383612095565b60208301905092915050565b6117bc816125d2565b6117c68184612600565b92506117d1826125c8565b8060005b838110156118025781516117e9878261179b565b96506117f4836125f3565b9250506001810190506117d5565b505050505050565b6000611815826125dd565b61181f818561260b565b935061182f81856020860161273a565b80840191505092915050565b61184481612698565b82525050565b611853816126bc565b82525050565b611862816126e0565b82525050565b61187181612704565b82525050565b61188081612728565b82525050565b6000611891826125e8565b61189b8185612616565b93506118ab81856020860161273a565b6118b48161276f565b840191505092915050565b60006118ca826125e8565b6118d48185612627565b93506118e481856020860161273a565b80840191505092915050565b60006118fd600983612627565b91507f7b226e616d65223a2200000000000000000000000000000000000000000000006000830152600982019050919050565b600061193d602683612627565b91507f227d2c207b2274726169745f74797065223a22436f6c6f722031222c2022766160008301527f6c7565223a2200000000000000000000000000000000000000000000000000006020830152602682019050919050565b60006119a3600c83612627565b91507f222c202276616c7565223a2200000000000000000000000000000000000000006000830152600c82019050919050565b60006119e3601183612627565b91507f222c202261747472696275746573223a200000000000000000000000000000006000830152601182019050919050565b6000611a23601983612627565b91507f227d2c207b2274726169745f74797065223a22436f6c6f7220000000000000006000830152601982019050919050565b6000611a63602483612627565b91507f227d2c207b2274726169745f74797065223a224672616d65222c202276616c7560008301527f65223a22000000000000000000000000000000000000000000000000000000006020830152602482019050919050565b6000611ac9600583612627565b91507f20616e64200000000000000000000000000000000000000000000000000000006000830152600582019050919050565b6000611b09602983612627565b91507f227d2c207b2274726169745f74797065223a224669656c642054797065222c2060008301527f2276616c7565223a2200000000000000000000000000000000000000000000006020830152602982019050919050565b6000611b6f602c83612627565b91507f227d2c207b2274726169745f74797065223a224861726477617265205479706560008301527f222c202276616c7565223a2200000000000000000000000000000000000000006020830152602c82019050919050565b6000611bd5600783612627565b91507f626c61626c6122000000000000000000000000000000000000000000000000006000830152600782019050919050565b6000611c15600b83612627565b91507f204275696c6420506173730000000000000000000000000000000000000000006000830152600b82019050919050565b6000611c55600383612627565b91507f227d5d00000000000000000000000000000000000000000000000000000000006000830152600382019050919050565b6000611c95602183612627565b91507f5b7b2274726169745f74797065223a224669656c64222c202276616c7565223a60008301527f22000000000000000000000000000000000000000000000000000000000000006020830152602182019050919050565b6000611cfb600183612627565b91507f20000000000000000000000000000000000000000000000000000000000000006000830152600182019050919050565b6000611d3b600d83612627565b91507f222c2022696d616765223a2022000000000000000000000000000000000000006000830152600d82019050919050565b6000611d7b600183612627565b91507f7d000000000000000000000000000000000000000000000000000000000000006000830152600182019050919050565b6000611dbb601283612627565b91507f222c20226465736372697074696f6e223a2200000000000000000000000000006000830152601282019050919050565b6000611dfb602783612627565b91507f227d2c207b2274726169745f74797065223a224861726477617265222c20227660008301527f616c7565223a22000000000000000000000000000000000000000000000000006020830152602782019050919050565b6000611e61606983612627565b91507f3c73766720786d6c6e733d22687474703a2f2f7777772e77332e6f72672f323060008301527f30302f7376672220786d6c6e733a786c696e6b3d22687474703a2f2f7777772e60208301527f77332e6f72672f313939392f786c696e6b222076696577426f783d223020302060408301527f32323020323634223e00000000000000000000000000000000000000000000006060830152606982019050919050565b6000611f13600683612627565b91507f206f6e20612000000000000000000000000000000000000000000000000000006000830152600682019050919050565b6000611f53601d83612627565b91507f646174613a6170706c69636174696f6e2f6a736f6e3b6261736536342c0000006000830152601d82019050919050565b6000611f93600283612627565b91507f3a200000000000000000000000000000000000000000000000000000000000006000830152600282019050919050565b6000611fd3600683612627565b91507f3c2f7376673e00000000000000000000000000000000000000000000000000006000830152600682019050919050565b6000612013601a83612627565b91507f646174613a696d6167652f7376672b786d6c3b6261736536342c0000000000006000830152601a82019050919050565b6000612053601283612627565b91507f6d696e7465642062757420756e6275696c7400000000000000000000000000006000830152601282019050919050565b61208f81612651565b82525050565b61209e8161267f565b82525050565b6120ad8161267f565b82525050565b60006120bf828661180a565b91506120cb82856118bf565b91506120d782846118bf565b9150819050949350505050565b60006120f0828761180a565b91506120fc82866118bf565b915061210782611f06565b915061211382856118bf565b915061211f82846118bf565b915081905095945050505050565b6000612139828561180a565b915061214482611abc565b915061215082846118bf565b91508190509392505050565b6000612168828461180a565b915061217382611cee565b915081905092915050565b600061218a82846118bf565b915061219582611f86565b915081905092915050565b60006121ab826118f0565b91506121b782856118bf565b91506121c282611c08565b91506121cd82611dae565b91506121d882612046565b91506121e382611d2e565b91506121ee82612006565b91506121fa82846118bf565b915061220582611bc8565b915061221082611d6e565b91508190509392505050565b6000612227826118f0565b915061223382876118bf565b915061223e82611dae565b915061224a82866118bf565b915061225582611d2e565b915061226082612006565b915061226c82856118bf565b9150612277826119d6565b9150612283828461180a565b915061228e82611d6e565b915081905095945050505050565b60006122a782611930565b91506122b382876118bf565b91506122bf828661180a565b91506122cb828561180a565b91506122d7828461180a565b91506122e282611c48565b915081905095945050505050565b60006122fb82611a16565b915061230782856118bf565b915061231282611996565b915061231e82846118bf565b91508190509392505050565b600061233582611a56565b915061234182846118bf565b915081905092915050565b600061235782611c88565b915061236382896118bf565b915061236e82611dee565b915061237a82886118bf565b915061238582611afc565b915061239182876118bf565b915061239c82611b62565b91506123a882866118bf565b91506123b4828561180a565b91506123c0828461180a565b9150819050979650505050505050565b60006123db82611e54565b91506123e782866118bf565b91506123f382856118bf565b91506123ff82846118bf565b915061240a82611fc6565b9150819050949350505050565b600061242282611f46565b915061242e82846118bf565b915081905092915050565b600060208201905061244e600083018461183b565b92915050565b6000602082019050612469600083018461184a565b92915050565b60006020820190506124846000830184611859565b92915050565b600060208201905061249f6000830184611868565b92915050565b60006020820190506124ba6000830184611877565b92915050565b600060208201905081810360008301526124da8184611886565b905092915050565b60006020820190506124f76000830184612086565b92915050565b600060a0820190506125126000830185612086565b61251f60208301846117b3565b9392505050565b600060208201905061253b60008301846120a4565b92915050565b6000604051905081810181811067ffffffffffffffff821117156125685761256761276d565b5b8060405250919050565b600067ffffffffffffffff82111561258d5761258c61276d565b5b602082029050919050565b600067ffffffffffffffff8211156125b3576125b261276d565b5b601f19601f8301169050602081019050919050565b6000819050919050565b600060049050919050565b600081519050919050565b600081519050919050565b6000602082019050919050565b600081905092915050565b600081905092915050565b600082825260208201905092915050565b600081905092915050565b60008115159050919050565b600081905061264c82612780565b919050565b600061ffff82169050919050565b600073ffffffffffffffffffffffffffffffffffffffff82169050919050565b600062ffffff82169050919050565b6000819050919050565b60006126a3826126aa565b9050919050565b60006126b58261265f565b9050919050565b60006126c7826126ce565b9050919050565b60006126d98261265f565b9050919050565b60006126eb826126f2565b9050919050565b60006126fd8261265f565b9050919050565b600061270f82612716565b9050919050565b60006127218261265f565b9050919050565b60006127338261263e565b9050919050565b60005b8381101561275857808201518184015260208101905061273d565b83811115612767576000848401525b50505050565bfe5b6000601f19601f8301169050919050565b600281106127915761279061276d565b5b50565b61279d81612632565b81146127a857600080fd5b50565b600281106127b857600080fd5b50565b600281106127c857600080fd5b50565b6127d481612651565b81146127df57600080fd5b50565b6127eb8161267f565b81146127f657600080fd5b50565b6128028161268e565b811461280d57600080fd5b5056fe4142434445464748494a4b4c4d4e4f505152535455565758595a6162636465666768696a6b6c6d6e6f707172737475767778797a303132333435363738392b2f35303030206f6e2d636861696e20736869656c64732c2064657369676e656420616e64206275696c74206279207468656972206f776e6572732ea164736f6c6343000706000a",
  "devdoc": {
    "details": "Generate Shield Metadata",
    "kind": "dev",
    "methods": {},
    "version": 1
  },
  "userdoc": {
    "kind": "user",
    "methods": {},
    "version": 1
  },
  "storageLayout": {
    "storage": [],
    "types": null
  }
}